:020000040000FA
:100000006012001079010000CD030000BD03000064
:10001000C503000033020000591300004CCBFFEF72
:100020000000000000000000000000008B01000044
:100030008D010000000000008F0100009101000010
:100040009301000093010000930100009301000060
:1000500093010000D10D0000930100009301000006
:100060009301000093010000930100009301000040
:100070009301000093010000930100009301000030
:100080009301000093010000930100009301000020
:100090009301000093010000930100009301000010
:1000A0009301000093010000930100009301000000
:1000B00093010000930100009301000093010000F0
:1000C00093010000930100009301000000F002F88A
:1000D00000F03AF80AA090E8000C82448344AAF1A8
:1000E0000107DA4501D100F02FF8AFF2090EBAE8A6
:1000F0000F0013F0010F18BFFB1A43F0010318475C
:10010000782F0000982F0000103A24BF78C878C1DB
:10011000FAD8520724BF30C830C144BF04680C600D
:10012000704700000023002400250026103A28BF55
:1001300078C1FBD8520728BF30C148BF0B60704759
:100140001FB51FBD10B510BD00F039F81146FFF7FF
:10015000F7FF02F06DFB00F057F803B4FFF7F2FF72
:1001600003BC00F05FF8000040BA7047C0BA7047A7
:10017000D0F800D0D0F804F009488047094800477B
:10018000FEE7FEE7FEE7FEE7FEE7FEE7FEE7FEE747
:10019000FEE7FEE704480549054A064B70470000A4
:1001A000990C0000CD0000006009001060120010E2
:1001B000600A0010600A001070477047704775466B
:1001C00000F02CF8AE4605006946534620F00700C3
:1001D000854618B020B5FFF7DDFFBDE820404FF0A1
:1001E00000064FF000074FF000084FF0000B21F021
:1001F0000701AC46ACE8C009ACE8C009ACE8C009EE
:10020000ACE8C0098D46704710B50446AFF30080D6
:100210002046BDE81040FFF7A0BF0000004870472F
:100220000009001001491820ABBEFEE726000200BD
:10023000704700BF00BF00BFFEE770B504460D4623
:100240002946204600F013F870BD70B504460D46EF
:10025000164632462946204600F030F870BD70B58B
:1002600004460D462946204600F03CF870BD70B5A6
:1002700006460C46304600F005F8054605B1EC612F
:1002800070BD000001460020052912D2DFE801F010
:100290000305080B0E0008480CE00748203009E071
:1002A0000548403006E00448603003E002488030F2
:1002B00000E000BF00BF704700C009202DE9F041F9
:1002C00007460D4616463846FFF7DCFF04463CB1AC
:1002D0001EB120682843206002E02068A843206007
:1002E000BDE8F08170B506460C463046FFF7CAFF00
:1002F000054605B1AC6170BD00000000FFFFFFFFC7
:1003000010B5044604F01F02012000FA02F1C4F304
:100310004210FFF792FF10BD10B50446204600F0D2
:1003200029F810BD10B504460021204600F014F84D
:1003300010BD10B504460121204600F00DF810BD97
:1003400010B5044604F01F02012000FA02F1C4F3C4
:100350004210FFF784FF10BD70B504460D4604F04F
:100360001F02012000FA02F12A46C4F34210FFF7EF
:100370006CFF70BD1CB5044600208DF802008DF89E
:1003800004008DF80300C4F342108DF8000004F05F
:100390001F008DF80100684600F028F81CBD70B5FC
:1003A00005460C462846FFF7C4FF1CB12846FFF758
:1003B000C7FF02E02846FFF7A3FF70BD00BF00BFE4
:1003C00000BFFEE700BF00BF00BFFEE700BF00BFE9
:1003D00000BFFEE700F01F0201219140024A4309DD
:1003E00042F823107047000080E100E010B5044699
:1003F000A2786178207802F08FFCE278617820782A
:1004000002F0AAFC22796178207802F06DFC10BD20
:100410002DE9F04105460C461E48B0F90000FFF7F3
:100420006FFFE9B241F0400000F016FC200E00F032
:1004300013FCC4F3074000F00FFCC4F3072000F0E6
:100440000BFCE0B200F008FC952000F005FC002653
:1004500012E0FF2000F000FC074607F0800050B9D2
:100460000C48B0F90000FFF76BFFFF2000F0F4FB31
:100470003846BDE8F081761CB6F5805FE9DB0548BB
:10048000B0F90000FFF75CFFFF2000F0E5FB4FF044
:10049000FF30EEE7180000102DE9F04104462A482D
:1004A000B0F90000FFF72CFF00257A2000F0D4FB04
:1004B000281600F0D1FB280C00F0CEFB280A00F033
:1004C000CBFB284600F0C8FB952000F0C5FB0026BA
:1004D0002BE0FF2000F0C0FB074607F0800018BBB0
:1004E000FF2000F0B9FB00062060FF2000F0B4FB05
:1004F000216841EA00402060FF2000F0ADFB216848
:1005000041EA00202060FF2000F0A6FB216808439C
:1005100020600D48B0F90000FFF712FFFF2000F047
:100520009BFB3846BDE8F081761CB6F5805FD0DBDA
:100530000548B0F90000FFF703FFFF2000F08CFB37
:100540004FF0FF30EEE70000180000107CB52348A4
:10055000B0F90000FFF7D4FE482000F07DFB00203A
:1005600000F07AFB002000F077FB012000F074FB24
:10057000AA2000F071FB872000F06EFB00251FE031
:10058000FF2000F069FB8DF800009DF8000000F0EE
:100590008000A0B9012405E0FF2000F05DFB0DF80C
:1005A0000400641C052CF7DB0C48B0F90000FFF7D1
:1005B000C7FEFF2000F050FB9DF800007CBD6D1CC5
:1005C000B5F57A1FDCDB0548B0F90000FFF7B8FE8F
:1005D000FF2000F041FB4FF0FF30EFE71800001064
:1005E0002DE9F04105460C461A48B0F90000FFF726
:1005F00087FEE9B241F0400000F02EFB200E00F033
:100600002BFBC4F3074000F027FBC4F3072000F0E6
:1006100023FBE0B200F020FB952000F01DFB00263C
:100620000AE0FF2000F018FB074607F0800010B931
:100630003846BDE8F081761CB6F5805FF1DB0548F1
:10064000B0F90000FFF77CFEFF2000F005FB4FF043
:10065000FF30EEE71800001070B505460E46124850
:10066000B0F90000FFF74CFE00BFFF2000F0F4FAE5
:10067000FE28FAD1002404E0FF2000F0EDFA28550E
:10068000641CB442F8DBFF2000F0E6FAFF2000F023
:10069000E3FA0548B0F90000FFF752FEFF2000F032
:1006A000DBFA002070BD0000180000102DE9FF47A4
:1006B00000210920FFF794FF28B100BF00BF0020F0
:1006C00004B0BDE8F08710216846FFF7C5FF18B1F8
:1006D00000BF00BF0020F3E77E227F21684601F0C3
:1006E000C1FC044664BB21480068032801D10020F6
:1006F000E6E73E224921684601F0B4FC81462F22FC
:100700003121684601F0AEFC8046502253216846F4
:1007100001F0A8FC0646012101FA06F508F10200E5
:1007200001FA00FA09F1010000FB0AF7B5F5007FB4
:1007300002D3680A7843C3E707FB05F0400ABFE726
:10074000012C0FD109480068032801D00020B7E729
:1007500030224521684601F085FC0546681C86026A
:100760003046ADE700BF00BF0020A9E7240000101D
:1007700070B505460E461B48B0F90000FFF7C0FDF6
:10078000FE2000F069FA002403E0285D00F064FA1E
:10079000641CB442F9DBFF2000F05EFAFF2000F099
:1007A0005BFAFF2000F058FA00F01F00052809D07E
:1007B0000C48B0F90000FFF7C3FDFF2000F04CFA31
:1007C000012070BD00BFFF2000F046FA0028FAD0DB
:1007D0000448B0F90000FFF7B3FDFF2000F03CFA39
:1007E0000020EEE7180000104FF400707047000082
:1007F00010B500200D49086000F08EF804460CB9D1
:10080000012010BDFFF752FF084908604FF4007146
:100810001020FFF7FDFD18B100BF00BF0120F0E779
:10082000034800F0F1F80020EBE70000140000108E
:1008300000093D0070B505460C460F4800680128C8
:1008400003D00D480068022801D1600206E00A4882
:100850000068032801D1204600E000200146112055
:10086000FFF7D6FD08B1012070BD4FF40071284696
:10087000FFF7F2FE0020F7E72400001001480068AF
:1008800070470000140000100348006808B90120F8
:1008900070470020FCE700001400001070B505460A
:1008A0000C460F480068012803D00D480068022854
:1008B00001D1600206E00A480068032801D1204601
:1008C00000E0002001461820FFF7A2FD08B101203A
:1008D00070BD4FF400712846FFF74AFF0020F7E78C
:1008E000240000102DE9F04105460E4617461C462F
:1008F0003A463146284600F0DFF82046FFF70CFD67
:100900002046FFF716FD2046FFF71AFD0148048038
:10091000BDE8F0811800001070B546F2A81000F094
:1009200073F81648B0F90000FFF70AFD002503E050
:10093000FF2000F091F96D1C102DF9DB0021084615
:10094000FFF766FD012805D000BF00BF00200C495D
:10095000086070BDFFF7FAFD0446012C02D100F0DB
:100960002BF8F6E7052C02D100F00CF8F1E700BFF8
:1009700000BF002002490860EBE7000018000010EB
:100980002400001010B500240DE000213720FFF7EF
:100990003FFD00212920FFF73BFD18B90120054943
:1009A000086010BD641CB4F5805FEEDB00BF00BFC3
:1009B0000020F6E72400001038B5002419E00021DB
:1009C0003720FFF725FD4FF080412920FFF720FD5C
:1009D00070B96846FFF760FD009800F0804018B1DC
:1009E00003200849086038BD022006490860FAE77C
:1009F000641CB4F5805FE2DB00BF00BF002001494A
:100A00000860F0E7240000102749B1FBF0F1274A05
:100A1000116027490968002944D0B0F5C07F13D878
:100A2000FE21234A12681161214909680968C9B287
:100A30001F4A126811601E490968096841F47F4124
:100A40001B4A126811602DE01A4988420BD9022115
:100A5000174A12681161164909680968C9B2144A2F
:100A6000126811601EE01149097801F0FE01104A78
:100A7000126811610E4909680968C9B20C4A126806
:100A800011600B4909680969084A1268B2FBF1F163
:100A9000491EC9B2064A1268126842EA0121044A94
:100AA000126811607047000040787D012800001036
:100AB0003400001020BCBE0070B504460D4616463A
:100AC00004F01F02012000FA02F10246C4F34210B2
:100AD000FFF7BBFB05F01F02012000FA02F1002224
:100AE000C5F34210FFF7B1FB06F01F02012000FA28
:100AF00002F10246C6F34210FFF7A7FB092C27D1EB
:100B0000082D25D1072E23D14C484D4908604D486A
:100B1000006820F47C204B4908600846006840F4D7
:100B2000282008604848006820F440104749C1F870
:100B3000A8010846D0F8A80140F48010C1F8A80127
:100B40000846D0F8C40040F48060C1F8C4005DE0FD
:100B5000122C32D1112D30D10F2E2ED13C483849D4
:100B600008603848006820F0404036490860084670
:100B7000006840F0004008600846406820F03C00F3
:100B800048600846406840F0280048602E48001D34
:100B9000006820F440602D49C1F8AC010846D0F847
:100BA000AC0140F48060C1F8AC010846D0F8C40044
:100BB00040F40010C1F8C40028E0382C23D1372DB0
:100BC00021D1342E1FD122481D4908601D48C0681C
:100BD000204908431B49C8601B48001D006820F4D9
:100BE00040601A49C1F8AC010846D0F8AC0140F4A5
:100BF0008060C1F8AC010846D0F8C40040F4001091
:100C0000C1F8C40002E000200D4908600C480068EB
:100C100098B107200A490968086000200849096856
:100C2000486042F21070FFF7EFFE05480068406828
:100C300040F0020002490968486070BD00000340AE
:100C40003400001000C00240A8C10F4000C00F4097
:100C50000080084000C30300014600200D4A1268CE
:100C6000B2B100BF0B4A1268D26802F00202002A39
:100C7000F8D0084A1268916000BF064A1268D2682C
:100C800002F00402002AF8D0024A12689268D0B238
:100C9000704700003400001020204949086049488E
:100CA000D0F8A00100F0200030B100BF4448006837
:100CB00000F040000028F9D0032041499C39086029
:100CC00000204049C1F8A8013D490C3108600120CD
:100CD0003B499439086013203A4984310860AA20BE
:100CE00038498C3108605520086001203549803131
:100CF0000860AA2033498C31086055203149C1F879
:100D00008C0000BF2F488830006800F08060002809
:100D1000F8D003202B4980310860AA202949C1F866
:100D20008C00552027498C31086000BF2548883049
:100D3000006800F040700028F8D023202149A43139
:100D40000860AA201F49C1F8AC0055201D49AC31EC
:100D5000086001201B49A0310860AA201949AC3164
:100D6000086055201749C1F8AC0000BF1548A830ED
:100D7000006800F480600028F8D003201149A031F9
:100D80000860AA200F49C1F8AC0055200D49AC31CC
:100D9000086000BF0B48A830006800F440700028CD
:100DA000F8D009480749C431086000200549C1F856
:100DB000C80145F23A000860002004490860704705
:100DC000A0C10F4000C00F400884208008ED00E063
:100DD00010B500BF00BF00F07BF900BF00BF10BD21
:100DE0000146087D00F0400008B100207047012056
:100DF000FCE70146886840F2CF321040704700009F
:100E000001460348814201D1007D7047087DFCE71F
:100E10000000014030B50B460021072B15D2DFE85A
:100E200003F00406080A0C0E110001210DE0022156
:100E30000BE0042109E0082107E0802105E04FF4E0
:100E4000807102E04FF4007100BF00BF012A0AD197
:100E50000D4CA04203D144680C43446013E0446845
:100E60000C4344600FE0084CA04206D1446840F2B5
:100E70008F358D432C40446005E0446840F20735CF
:100E80008D432C40446030BD00000140FEB5064655
:100E900000206749087000BF66494860086000BFCD
:100EA00000BF65494860086000BF00900190029053
:100EB0006946304600F06CFA4FF0FF359DF80400AB
:100EC00030B1012806D0022806D0032806D106E05A
:100ED000012406E0022404E0002402E000BF032411
:100EE00000BF00BF5548006830B1012817D0022864
:100EF00028D003284CD138E05148006840F0080061
:100F00004F49C439C1F8C4004D48E430006820F0AE
:100F1000C00040EA8410C1F8A801052538E048481F
:100F2000006840F010004649C439C1F8C400444884
:100F3000E430006820F4407040EA0420C1F8A801C1
:100F4000062525E03E48006840F080703C49C439E1
:100F5000C1F8C4003A48E830006820F4403040EA64
:100F60000440C1F8AC01072512E03548006840F0A4
:100F700000703349C439C1F8C4003148E830006812
:100F800020F4402040EA8440C1F8AC01082500BFAD
:100F900000BF2C480068007B40F0800029490968A8
:100FA0000873BDF80600000A264909680871BDF8F3
:100FB000060024490968087022480068007B00F098
:100FC0007F002049096808739DF8080000F00F01B0
:100FD0009DF8090061F31F101A49096881F828007B
:100FE0000720184909680872032016490968087320
:100FF00000201449096881F824001248006890F81C
:10100000300040F080000F49096881F83000802DE1
:101010000CDA00BF05F01F01012088406909890032
:1010200001F1E021C1F8000100BF00BF3046FEBD64
:101030003C000010F0040010F80600104000001002
:10104000C4C00F403800001007480068007D00F061
:10105000400008B10020704704480068034949680F
:10106000401AC0F30800F6E738000010F004001042
:1010700010B50E48006830B1012808D002280AD007
:10108000032810D10BE00520FFF7A4F90BE00620A0
:10109000FFF7A0F907E00720FFF79CF903E008201D
:1010A000FFF798F900BF00BF10BD0000400000101E
:1010B00000E000BFFDE770B505460E461446314618
:1010C000284600F027F82046FFF7E0FE70BD00003C
:1010D00070B50F480068FFF78CFE00F00E04062C78
:1010E0000AD10B480068FFF78BFE054605F09E0508
:1010F00015B1E8B2FFF7DCFF042C01D00C2C01D1B4
:1011000000F0ACF8022C01D100F0D6F870BD000060
:10111000380000107CB504460D460120484908708F
:1011200000208DF804008DF80300022D0AD1032C55
:1011300008D14449086044484449086001208DF8BA
:10114000020065E05DB9012C09D103203D4908602A
:101150003F483E49086002208DF8020058E00A2D01
:101160000BD10B2C09D10220364908603948374988
:10117000086001208DF802004AE00F2D0BD1102CE1
:1011800009D101202F490860334830490860012007
:101190008DF802003CE0192D0BD11A2C09D1032047
:1011A000284908602A482949086003208DF8020070
:1011B0002EE0402D0BD1412C09D10120214908609E
:1011C00025482249086002208DF8020020E0482DC1
:1011D0000BD1492C09D102201A4908601D481B492E
:1011E000086002208DF8020012E09C2D0BD19D2C8E
:1011F00009D10320134908601548144908600320E9
:101200008DF8020004E04FF0FF300E4908607CBD0D
:10121000C5F342108DF8000005F01F008DF80100A5
:101220006846FFF7E3F8C4F342108DF8000004F0BD
:101230001F008DF801006846FFF7D8F800BFE6E709
:101240003D0000104000001000C0004038000010B9
:1012500000C00940008009400000014010B524E0B2
:10126000134A1268117D01F00102EAB1104A1268B6
:101270001078104A5268C2F308030E4A1268521CD2
:10128000C2F30802934210D000BF0A4B1A68531CE5
:10129000084C236004F10803985422461268C2F3F4
:1012A0000802083B1A6000E000E0D9E700BF10BD6B
:1012B00038000010F806001010B500220121234864
:1012C0000068FFF7A7FD00BF20480068FFF788FD12
:1012D0000128F9D012E000BF1D494868411C1C4A92
:1012E000516002F10801095C184A1268117018482F
:1012F0004068C0F308001649486000BF1448006801
:10130000C0F3080012494968C1F308018842E2D1DC
:101310000F480068C0F308000D494968C1F308018F
:10132000884209D10022012108480068FFF772FDB8
:1013300000200849087008E00120064908700122D1
:10134000114602480068FFF765FD10BD3800001027
:10135000F00400103C00001000BF00BF00BFFEE71B
:101360004FF08040007820F004004FF0804108707A
:10137000704772B6AA20410708725520087262B6FB
:1013800070474FF080400078C0F380007047000045
:101390002DE9FC5F05460C460020019020603A488C
:1013A000854201D2032000E00120814667E0012050
:1013B00000FA09F035490968B1FBF0F00090012608
:1013C0004EE0002749E00198401C01902801B9191E
:1013D00048437100009A5143B1FBF0F0401C4FEAC2
:1013E0005008B8F5803F00D336E0B8F1000F01D1C6
:1013F0004FF0010827B1B8F1020F01D24FF00208F7
:1014000033463A464146009800F042F88246294663
:10141000504601F04AFD83462946206801F045FD0B
:10142000834518D2C4F800A084F80490A4F806807C
:1014300026726772AA4502D10198BDE8FC9F294631
:10144000206801F032FD00EB40004002B0FBF5F0F7
:1014500008B90198F1E700BF7F1CB742B3D3761CEF
:10146000102EAED32946206801F01FFDC821484345
:10147000B0FBF5F008B90198DFE7A9F10109B9F16E
:10148000040F94D30198D8E740420F004C0000109D
:1014900070B50446080150430002B0FBF3F606EBBA
:1014A00001356001B0FBF5F0C00070BD70B50446B9
:1014B0000D46607801232A4604F1300100F071FDE9
:1014C00008B1032070BD94F82E1294F82F0241EA5F
:1014D00000204AF65521884201D00220F2E794F814
:1014E0006900010694F8680041EA004194F8670039
:1014F00041EA002094F86610084320F07F400E492E
:10150000884201D10020DDE794F88500010694F8B7
:10151000840041EA004194F8830041EA002094F8F5
:101520008210084320F07F400349884201D1002007
:10153000C8E70120C6E70000464154002DE9F0410C
:10154000ADF5027D00270025A84600BF00BF334946
:10155000002000F0B1FD012231480168314800F05F
:10156000C1FD061E04D14FF001082E4800F099FD80
:1015700001222D4801682D4800F0B4FD061E49D116
:1015800000BF00BF4FF400700190440126E001ABA2
:101590004FF4007202A9254800F053FE30B12348F1
:1015A00000F07FFD0DF5027DBDE8F081A4F58041DE
:1015B000C80B01F0F1FB6D1C032D05D900250FB9F7
:1015C000012000E00020074600BF00BF4FF400727A
:1015D00002A9204601F0A4FC019804440198B0F54A
:1015E000007FD4D0114800F05CFDB4F5804F10D9D5
:1015F00000BF00BFB8F1000F0BD10D48006800F02C
:10160000B6FF01900A4801680748006800F0E0FE54
:10161000019001E000BF00BF00BFC3E75000001011
:1016200008000010A402001000000010800200104A
:1016300004000010024600E0521C107810B110782F
:101640008842F9D1107870472DE9F74F88B0089893
:1016500000680190019800783038079007980928B1
:101660000AD8019840783A2806D10198801C019048
:1016700008990198086001E000200790002109986E
:101680000160079818B10B200BB0BDE8F08FD0496E
:10169000079851F820400CB90C20F5E70998046030
:1016A000207878B1607800F09BFC804608F001005B
:1016B00040B90A9820B108F0040008B10A20E3E715
:1016C0000020E1E70020207007986070607800F04B
:1016D00018FC804608F0010008B10320D4E70A98FE
:1016E00020B108F0040008B10A20CDE74FF0000B4C
:1016F00059462046FFF7DAFE054600BF012D21D1ED
:101700004FF0000ABAF1000F03D0AAF1010000F077
:10171000FF0A4FF4DF7000EB0A1104F130000F18DC
:10172000387978B1F87A0106B87A41EA0041787AD6
:1017300041EA0020397A40EA010B59462046FFF77A
:10174000B5FE0546032D01D101209DE70DB10D2009
:101750009AE73B20015D94F83C0041EA0020B0F597
:10176000007F01D00D208FE74620015D94F84700EF
:1017700041EA0029B9F1000F0ED194F85700010693
:1017800094F8560041EA004194F8550041EA0020DF
:1017900094F8541040EA0109C4F81C904020065DFA
:1017A000E670012E03D0022E01D00D206CE709FB5C
:1017B00006F93D20005D0646A07016B1701E30404F
:1017C00008B10D2060E74120015D94F8420041EA34
:1017D00000202081207A00F00F0008B10D2053E78F
:1017E0004320015D94F8440041EA002006900698E9
:1017F00070B994F85300010694F8520041EA004190
:1018000094F8510041EA002094F8501008430690E3
:101810003E20015D94F83F0041EA002002900298CA
:1018200008B90D2030E702984844218900EB1110D7
:101830000590DDE90501814201D20D2024E7DDE9B3
:101840000510401AA178B0FBF1F00490049808B993
:101850000D2019E7012540F6F6710498884200D35F
:1018600002254FF6F6710498884200D303250498A8
:10187000801CA06105985844A062029858442062D8
:10188000032D16D1208908B10D20FDE694F85F00E4
:10189000010694F85E0041EA004194F85D0041EAD7
:1018A000002094F85C1008436062A06980000390F7
:1018B00014E0208908B90D20E6E6206A48446062F9
:1018C000022D02D1A069400007E0207E00F0010057
:1018D000A16901EB410100EB51000390E16903981C
:1018E00000F2FF10B1EB502F01D20D20CCE64FF0EB
:1018F000FF3020610020E060032D5CD1607194F81E
:10190000601094F8610041EA0020584460616078FA
:10191000012304F13001626900F043FBF0BB94F84D
:101920002E1294F82F0241EA00204AF655218842EF
:1019300041D13320005D01063220005D41EA0041C3
:101940003120005D41EA002094F83010084321491D
:10195000884230D194F81702010694F8160241EA41
:10196000004194F8150241EA002094F8141208434B
:10197000194988421FD194F81F02010694F81E02EB
:1019800041EA004194F81D0241EA002094F81C123B
:101990000843E06094F81B02010600E00BE094F8B5
:1019A0001A0241EA004194F8190241EA002094F831
:1019B000181208432061257008480088401C80B236
:1019C00006490880E0800020E062207100BF5BE6ED
:1019D000440000105252614172724161480000108F
:1019E0000246891E9069801E884201D800207047F7
:1019F0009378906A01FB0300F9E72DE9F04704466C
:101A00008946B9F1000F06D1E76817B1A069B8425D
:101A100011D801270FE04946204600F078FE06461F
:101A2000022E02D20120BDE8F087A069B04201D9A0
:101A30003046F8E74F463D4600BF6D1CA069A842FE
:101A400004D80225BD4201D90020ECE729462046F2
:101A500000F05DFE064606B909E0701C08B1012ED3
:101A600001D13046DFE7BD42E7D10020DBE700BF10
:101A70006FF070422946204601F066F88046B8F1C2
:101A8000000F08D1B9F1000F05D02A46494620467B
:101A900001F05AF88046B8F1000F09D1E5602069DD
:101AA000401C68B12069401E20610120607107E080
:101AB000B8F1010F02D14FF0FF3000E001200546E0
:101AC0002846B0E72DE9F35F8A46DAF8007000E0B7
:101AD0007F1C38782F28FBD038785C28F8D0009805
:101AE00086690B222021304600F076FF0025A946AA
:101AF000AB464FF0080800BF58460BF1010B3C5CA9
:101B0000202C03DD2F2C01D05C2C00D136E02E2CB4
:101B100001D0C1450ED3B8F1080F01D12E2C02D04F
:101B20000620BDE8FC9F4FF008094FF00B08A806FF
:101B3000050EE1E7802C05DB45F00305A4F18000EC
:101B400023490C5C214623A0FFF774FD08B1062051
:101B5000E7E7412C04DB5A2C02DC45F0020508E0E3
:101B6000612C06DB7A2C04DC45F00105A4F1200091
:101B7000C4B2484609F101093454BDE700BF07EB80
:101B80000B00CAF80000202C01DC042000E000203B
:101B90000446B9F1000F01D10620C2E73078E528EC
:101BA00001D105203070B8F1080F01D1A806050E4B
:101BB00005F00300012801D144F0100405F00C00E9
:101BC000042801D144F00804F4720020A9E70000C1
:101BD000CC2F0000222A2B2C3A3B3C3D3E3F5B5D44
:101BE0007C7F00000CB501460020019004E00198C4
:101BF00000900198401C019001988842F7D300980A
:101C00000CBD2DE9F04104460021204600F02BF9DF
:101C1000054615B12846BDE8F08100BF216920685E
:101C200000F0E4FE054605B116E0666937780FB9A5
:101C3000042511E0F07A00F0080030B90B2230469C
:101C4000A16900F0A9FE00B906E00021204600F0DD
:101C500006F80546002DE1D000BF2846DBE72DE958
:101C6000F0410446884600BFE088401C86B20EB1B1
:101C7000206910B90420BDE8F08106F00F000028AB
:101C80006FD12069401C2061E06828B92068008974
:101C9000B04266DC0420EEE720688078401E00EA4F
:101CA000161000285DD1E168206800F030FD05467F
:101CB000012D01D80220DEE7681C08B90120DAE70F
:101CC00020688069A84246D8B8F1000F01D10420ED
:101CD000D1E7E1682068FFF790FE05460DB90720BF
:101CE000C9E7012D01D10220C5E7681C08B9012010
:101CF000C1E70021206800F079FE08B10120BAE7B1
:101D0000216801F130004FF40072002100F064FE00
:101D100029462068FFF764FE2168C862002710E0AA
:101D20000120216808710021206800F05FFE08B1E1
:101D30000120A0E72068C06A401C2168C862781CA6
:101D4000C7B220688078B842EADC2068C06AC01B4D
:101D50002168C86200BFE56029462068FFF740FEA1
:101D60002061E6802068303006F00F0100EB411062
:101D7000606100207FE72DE9F041044604251BE067
:101D80002169206800F032FE054605B117E0676959
:101D90003E780EB9042512E0E52E06D02E2E04D092
:101DA000F87A00F0080000B909E000212046FFF7AA
:101DB00056FF054605B102E020690028E0D100BFCA
:101DC0000DB1002020612846BDE8F0812DE9F041E9
:101DD00004460021204600F046F80546ADB900BF94
:101DE0002169206800F002FE054605B10CE060693B
:101DF0000678E52E00D006B906E001212046FFF75F
:101E00002EFF0546002DEBD000BF9DB9216920684B
:101E100000F0ECFD05466DB96769202200213846C7
:101E200000F0DAFD0B223846A16900F0C8FD012060
:101E3000216808712846BDE8F08170B50446E18844
:101E4000204600F010F805465DB92169206800F0D1
:101E5000CDFD05462DB9E520616908700120216896
:101E60000871284670BD2DE9F04104460E46E68013
:101E7000A568012D03D020688069A84202D80220FD
:101E8000BDE8F0812DB920680078032801D12068D1
:101E9000456A65B9E56020680089B04201DC02202E
:101EA000EEE72068406A00EB1610206120E0206811
:101EB0008078070112E02946206800F028FC0546DA
:101EC000681C08B90120DBE7022D03D32068806974
:101ED000A84201D80220D3E7F01B86B2BE42EADA5C
:101EE000E56029462068FFF77BFD00EB16102061B6
:101EF0002068303006F00F0100EB411060610020D7
:101F0000BEE770B505464DB9FEF772FC04460CB14C
:101F1000012000E000200646304670BD0120FCE7AD
:101F20002DE9F04106460D4614464FF00108002EFB
:101F300035D1052D28D2DFE805F00310061A24005C
:101F40004FF0000820E0FEF74FFC2080208808B109
:101F5000012000E00020804616E0FEF78FFC2060A4
:101F6000206808B1012000E0002080460CE0FEF768
:101F70003BFC2060206808B1012000E00020804682
:101F800002E04FF0000800BF00BFB8F1000F01D021
:101F9000012000E0002007463846BDE8F08104201B
:101FA000FBE72DE9F04706460F4614461D46AEB93D
:101FB00007E021463846FEF73DFC681EC5B204F531
:101FC0000074002DF5D1A846B8F1000F01D0012012
:101FD00000E0002081464846BDE8F0870420FBE78A
:101FE00070B505464DB9FEF74FFC04460CB1012013
:101FF00000E000200646304670BD0120FCE72DE9D8
:10200000F04706460F4614461D46AEB907E0214686
:102010003846FEF743FC681EC5B204F50074002D77
:10202000F5D1A846B8F1000F01D0012000E0002052
:1020300081464846BDE8F0870420FBE770B50646B8
:102040000C46154634200549086008464660846001
:10205000C560034900F0D2FB70BD0000C80200104B
:10206000DC0200102DE9F04303460024481C861AC8
:10207000002011E015184FF00F09A9EBE50705F056
:10208000070C13F8079049FA0CF909F0010808FA4F
:1020900000F949EA0404401CB042EBDB2046BDE8ED
:1020A000F08370B50446204600F01CFA05460DB9D1
:1020B00000202060284670BD0246012A01DB0B206B
:1020C0007047074850F822300BB10020187009B152
:1020D00000200870024840F822100020F0E70000BD
:1020E000440000102DE9F7438AB0054616461DB995
:1020F00009200DB0BDE8F0830020286006F01F061F
:1021000026F0010203A90BA8FFF79EFA0746002F4D
:102110007ED1CDF824D003A80B9900F0AFFA074682
:10212000089C0FB904B9062706F01C00002851D0FE
:102130004FB1042F03D103A8FFF748FE074646F02E
:102140000806089C09E0E07A00F0110008B10727B2
:1021500003E006F0040000B10827002F39D106F093
:102160000800002835D000F045FB804684F80E803A
:102170004FEA1821E1734FEA184121744FEA1861C0
:1021800061740020E072207700216177A177E17708
:102190002146039800F03CFB81460021204600F0D8
:1021A00017FE012003990871B9F1000F11D00398AF
:1021B000D0F82C804946039800F061FD074647B9E6
:1021C000A9F101000399C8604146039800F00EFC94
:1021D00007460EE06FB9E07A00F0100008B104275E
:1021E00007E006F0020020B1E07A00F0010000B143
:1021F000072747B906F0080008B146F02006039803
:10220000C06AE8612C621FB9AE712146039800E0F4
:1022100015E000F0FDFA2861E07F0106A07F41EAA9
:102220000041607F41EA0020217F0843E8600020F0
:10223000A860A861039828600398C088A8803846E1
:1022400057E72DE9FF4F83B0044615469A46DDF85F
:1022500010B00020CAF80000204600F02DFE0290C9
:10226000029818B1029807B0BDE8F08FA07900F08D
:10227000800008B10220F6E7A07900F0010008B95B
:102280000720F0E7D4E90210401A00900098854238
:1022900000D9009D97E02089C0F3080000286AD18A
:1022A00020688078401EA16800EA512000F0FF09F4
:1022B000B9F1000F1DD1A06810B92069019004E0A8
:1022C0006169206800F023FA01900198022805D284
:1022D000A07940F08000A0710220C4E70198401C62
:1022E00028B9A07940F08000A0710120BBE70198D7
:1022F000606161692068FFF773FB06462EB9A0791B
:1023000040F08000A0710220ADE74E444FEA55280E
:10231000B8F1000F2ED009EB0800216889788842B7
:1023200003D920688078A0EB090808F0FF03216832
:10233000487832465946FFF734FE28B1A07940F07C
:102340008000A07101208EE72068007978B12068B4
:10235000C06A801B40450AD2226802F13001D26A6D
:10236000921B0BEB42204FF4007200F028FB4FEA67
:1023700048271EE0A6612089C0F30800C0F5007759
:10238000AF4200D92F46A169206800F02FFB28B189
:10239000A07940F08000A071012064E7206830300F
:1023A0002289C2F3080281183A46584600F007FB1A
:1023B00000BFBB44A0683844A060DAF8000038448D
:1023C000CAF80000ED1B002D7FF465AF00204AE73E
:1023D0002DE9F34198B00F46012211A918A8FFF783
:1023E00033F90446002C79D111980A9001A817906E
:1023F00011A8189900F042F9044600BF002C6DD1D5
:10240000169808B9042469E0169800F10B0115220A
:1024100004A800F0D4FA1C2211A90AA800F0CFFAEF
:1024200039460AA800F02AF9044604B90824042C05
:1024300054D10AA8FFF7CAFC0446002C4ED10F9DC8
:1024400013220DF1120105F10D0000F0B8FA9DF80C
:10245000100040F02000E8720120119908710C99D9
:102460001398884230D0E87A00F0100060B3294613
:10247000119800F0CDF9804641461198FFF7B0FA67
:1024800006460EB902241FE03146119800F0AEFA5C
:102490000446119800F15005B4B968782E2813D17C
:1024A00011980078032806D111990C98496A88423E
:1024B00001D1002000E00C9806463146284600F085
:1024C00087FC01201199087144B911A8FFF7B5FCE8
:1024D00004461CB9119800F083FC044620461AB04B
:1024E000BDE8F0812DE9F0410446204600F0E4FC0F
:1024F0000746002F38D1A07900F02000002833D003
:10250000E169206800F072FA0746002F2CD1256A95
:10251000E87A40F02000E872207B2877A089010A41
:102520006977E068010CA977E068010EE977284631
:10253000216900F04DFC00F05DF90646AE75310AE8
:10254000E975310C2976310E69760020A8740021D6
:10255000E974A07920F02000A071012021680871A1
:10256000206800F03DFC07463846BDE8F08171B5B3
:1025700091B001220AA911A8FFF766F80446002CC1
:1025800046D1CDF840D00AA8119900F077F804465A
:1025900000BF002C3CD10F9E0EB9062404E0F07A57
:1025A00000F0010000B1072431460A9800F030F92C
:1025B0000546E4B9F07A00F01000C0B1022D01D256
:1025C000022414E01C220AA903A800F0F8F90595DA
:1025D000022103A8FFF747FC044644B903A8FFF70C
:1025E000CAFB044604B90724042C00D100247CB99A
:1025F0000AA8FFF722FC044654B925B129460A98D7
:1026000000F03DFB04461CB90A9800F0E9FB0446C3
:10261000204612B070BD70B506460D4672B6042451
:1026200027E0102C03D2200300F6FF7005E0A4F190
:102630000E0047F6FF7101EBC030A84218D9102CEC
:1026400001D2200302E0A4F10E00C003A84209D188
:1026500032462146204600F063FA324621462046A3
:10266000FFF7ECFC32462146204600F059FA02E022
:10267000641C1D2CD5D900BF62B670BD2DE9F34195
:102680000446019800782F2803D0019800785C2830
:1026900002D10198401C01900020A06001980078B0
:1026A000202807D200212046FFF7DDFB0546002049
:1026B000606129E000BF01A92046FFF703FA054643
:1026C00005B120E02046FFF79CFA0546A069C67ACE
:1026D00045B1042D00D016E000BF06F0040000B99B
:1026E000052510E006F0040000B10CE06769F87AF7
:1026F00000F0100008B9052505E03946206800F013
:1027000087F8A060D7E700BF2846BDE8FC812DE927
:10271000F04105460C46022C02D3A869A04202D81B
:102720000120BDE8F0812878012804D002282CD0AF
:1027300003285AD13DE0274607EB5707286A00EBEC
:102740005721284600F052F900B14EE0C7F30801C6
:1027500005F1300010F801807F1C286A00EB57213A
:10276000284600F043F900B13FE0C7F3080105F146
:102770003000405C48EA002804F0010010B14FEA44
:102780001810CEE7C8F30B00CBE7286A00EB142142
:10279000284600F02BF900B127E040F2FF1000EAD4
:1027A000440105F130000E183078717840EA0120BC
:1027B000B7E7286A00EBD411284600F017F900B1FA
:1027C00013E040F2FF1000EA840105F130000E181A
:1027D000F0780006B17840EA0140717840EA0120C3
:1027E0003178084320F070409BE700BF4FF0FF3086
:1027F00097E7000000487047A1A16DB970B5044685
:102800000D46024E29462046B04770BDF11FFF1FFE
:1028100010B502468C7ECB7E44EA03201378032B4E
:1028200005D10C7D4B7D44EA032340EA034010BDF3
:1028300008B5FEF79EFD4C20FDF76EFD4C20FDF720
:1028400071FD3220FDF768FD3220FDF772FD332067
:10285000FDF762FD3320FDF76CFD3420FDF75CFDD4
:102860003420FDF766FD3520FDF756FD3520FDF7D8
:1028700060FD9C20FDF750FD9C20FDF75AFD442093
:10288000FDF74AFD4420FDF754FD00214420FDF7EB
:1028900086FD4520FDF740FD4520FDF74AFD00215E
:1028A0004520FDF77CFD4620FDF736FD4620FDF76F
:1028B00040FD00214620FDF772FD4720FDF72CFD6D
:1028C0004720FDF736FD00214720FDF768FD1F205A
:1028D00000F062FA2D4A02210320FEF7ECFB00BF54
:1028E00000BF4FF48050009002E00098401E00901E
:1028F00000980028F9D10623072208210920FDF7B6
:10290000F1FFFDF775FF08B9FEF718FE00BFFEF7EF
:1029100038FD20B1FEF724FD00BF00BF00BF00BF9F
:10292000FEF792FB0028FBD100BF00BF00BFFEF7FF
:102930008BFB0028FBD1FEF79BFB00F091F8134ABC
:1029400002210320FEF7B7FB00BF00BF00BFFEF768
:102950007BFB0028FBD14FF48020009002E0009820
:10296000401E009000980028F9D100BFBFF34F8FA0
:102970000748006800F4E06006490843001D044968
:102980000860BFF34F8F00BF00BFFEE780841E00CA
:102990000CED00E00000FA05F0B503461C460D46BC
:1029A000002000BF161EA2F1010207D014F8017B1F
:1029B00015F801CBA7EB0C06301EF3D0F0BD70B5B7
:1029C00003460C4603E014F8015B03F8015B151E97
:1029D000A2F10102F7D170BD30B5034601E003F862
:1029E000011B141EA2F10102F9D130BD2DE9F04105
:1029F00004460D46E66AAE422FD0207908B36078CF
:102A00000123324604F13001FFF7F9FA10B1012039
:102A1000BDE8F08100202071D4E907100844B042DD
:102A20000FD9E7780AE0E06906446078012332466E
:102A300004F13001FFF7E3FA781EC7B2012FF2DC90
:102A400000BF55B1607801232A4604F13001FFF739
:102A5000A8FA08B10120DBE7E5620020D8E7000012
:102A600010B54FF480442948FFF7BCF828482040AF
:102A700028490860012028490860AA202649803991
:102A8000C1F88C00552024490C31086000BF224851
:102A90000830006800F000700028F8D11E49086076
:102AA000AA201D498039C1F88C0055201A490C31E3
:102AB000086000BF18480830006800F080700028E7
:102AC000F8D1154880380068C0F30B0012498039EE
:102AD00008600846006840F4A040086000200E49E5
:102AE000843108600C498039C1F80C010B49086039
:102AF0004FF47A70FFF776F8BFF35F8FBFF34F8F15
:102B0000BFF36F8F2046FDF733FB10BDC0C62D000D
:102B100080FFFF1F08ED00E080C00F40A0C10F4004
:102B200070B506460C461546322005490860084631
:102B300046608460C5600349FFF760FE70BD000019
:102B4000C8020010DC0200102DE9F04705460E46D1
:102B50001746022E02D3A869B04202D84FF00208ED
:102B60008AE02878012804D0022841D003287DD1AA
:102B700054E0B14609EB5909286A00EB592128466F
:102B8000FFF734FF8046B8F1000F00D071E0C9F3C1
:102B9000080105F130000C1806F0010020B1F9B26F
:102BA000207861F31F1000E03846207009F1010918
:102BB00001202871286A00EB59212846FFF716FFEB
:102BC0008046B8F1000F00D053E0C9F3080105F1C9
:102BD00030000C1806F0010010B1C7F3071005E033
:102BE000207800F0F000C7F303210843207040E094
:102BF000286A00EB16212846FFF7F8FE8046B8F158
:102C0000000F00D035E040F2FF1000EA460105F168
:102C100030000C182770380A60702AE0286A00EB30
:102C2000D6112846FFF7E2FE8046B8F1000F00D02B
:102C30001FE040F2FF1000EA860105F130000C1899
:102C4000E0780006A17840EA0140617840EA01207E
:102C50002178084300F0704007432770380A6070FD
:102C6000380CA070380EE07003E0FFE74FF0020868
:102C700000BF00BF012028714046BDE8F0872DE964
:102C8000F04104460E46022E02D3A069B04201D89C
:102C9000022725E000271FE031462046FFF737FDD9
:102CA000054605B91BE0012D01D1022717E0681C7C
:102CB00008B9012713E0002231462046FFF744FF00
:102CC000074607B10BE02069401C20B12069401C79
:102CD0002061012060712E46A069B042DCD800BF9F
:102CE0003846BDE8F081000030B50B460949012A9D
:102CF00007D151F8204001259D402C4341F8204048
:102D000006E051F8204001259D40AC4341F82040A9
:102D100030BD000068C00240F0B504460B461546C1
:102D2000194660000B4A102901D31039401C52F893
:102D300020604FEA410C032707FA0CF7BE4342F824
:102D4000206052F820604F0005FA07F73E4342F832
:102D50002060F0BD00C00240F0B504460B461546A9
:102D6000194660000B4A102901D31039401C52F853
:102D700020604FEA410C032707FA0CF7BE4342F8E4
:102D8000206052F820604F0005FA07F73E4342F8F2
:102D90002060F0BD40C0024010B5044604F00101BF
:102DA0003220FDF7FCFA04F002013320FDF7F7FAB8
:102DB00004F004013420FDF7F2FA04F00801352094
:102DC000FDF7EDFA04F010019C20FDF7E8FA10BDC4
:102DD00081760B0AC3760A0C02750B0E4375704799
:102DE00070B5044600212046FFF700FE0546002D81
:102DF00059D1207803284FD1607900284CD0002089
:102E0000E0624FF40072002104F13000FFF7E4FDAE
:102E1000552184F82E12AA2184F82F12522084F80A
:102E200030005221312001556121322001554121CC
:102E300033200155722184F8141284F815124121AF
:102E400084F81612612184F81712217C84F8181274
:102E5000208A010A84F819122069010C84F81A12D8
:102E60002069010E84F81B12217B84F81C12A089B2
:102E7000010A84F81D12E068010C84F81E12E06853
:102E8000010E84F81F126078012304F13001626999
:102E9000FFF7B5F800206071607800221146FFF757
:102EA0003FF800B10125284670BD02468A4201D391
:102EB000501A7047881AFCE770B505462C46206802
:102EC00038B12068007820B12068C088A188884285
:102ED00001D0092070BD21684878FFF781F800F023
:102EE000010008B10320F5E70020F3E72DE9F041E8
:102EF00004460F4615461E4672B633200649086042
:102F0000084647608560C66004610449FFF776FCA7
:102F100062B6BDE8F0810000C8020010DC020010BB
:102F20002DE9F04106460F4615462348006808B9CA
:102F300021480660002406E0385D204909682144E4
:102F40001F4A5054641CAC42F6D31C480068284405
:102F50001A49086008460068B0F5007F2AD1194870
:102F600000684FF47A71B0FBF1F8134801684046ED
:102F7000FFF751FB1448006818B113480068BDE81A
:102F8000F081104800684FF47A71B0FBF1F84FF40B
:102F900000730B4A084801684046FFF7A7FF0A483C
:102FA000006810B108480068E9E70020034908609C
:102FB000014908600020E2E70C000010100000103A
:102FC000F00200104C000010DC020010809A9041CA
:102FD0008E418F804545454949498E8F9092924F49
:102FE000994F555559999A9B9C9D9E9F41494F5584
:102FF000A5A5A6A7A8A9AAABAC21AEAFB0B1B2B3A4
:10300000B4B5B6B7B8B9BABBBCBDBEBFC0C1C2C308
:10301000C4C5C6C7C8C9CACBCCCDCECFD0D1D2D3F8
:10302000D4D5D6D7D8D9DADBDCDDDEDFE0E1E2E3E8
:10303000E4E5E6E7E8E9EAEBECEDEEEFF0F1F2F3D8
:10304000F4F5F6F7F8F9FAFBFCFDFEFF6669726D20
:10305000776172652E62696E000000006669726DAC
:10306000776172652E6375720000000061646D699E
:103070006E2E74787400000098300000000000107C
:103080005000000008010000E8300000500000106F
:1030900010120000240100004C3000005C300000E1
:1030A0006C30000000000000000000000000000084
:1030B0000000000000000000000000000000000010
:1030C0000000000000000000000000000000000000
:1030D00000000000000000000000000000000000F0
:1030E00000000000000E2707FFFFFFFFFFFFFFFFAC
:1030F000FFFFFFFFFFFFFFFFFFFFFFFFFFFFFFFFE0
:10310000FFFFFFFFFFFFFFFFFFFFFFFFFFFFFFFFCF
:10311000FFFFFFFFFFFFFFFFFFFFFFFFFFFFFFFFBF
:10312000FFFFFFFFFFFFFFFFFFFFFFFFFFFFFFFFAF
:00000001FF
