:10000000E07F0010CD0000007D1C0000911C00006E
:10001000A51C0000B91C0000CD1C00000000000061
:10002000000000000000000000000000552100005A
:100030005721000000000000592100005B21000052
:100040005D2100005D2100005D2100005D210000B8
:100050005D210000710700005D2100005D210000AE
:100060005D2100005D2100005D2100005D21000098
:100070005D2100005D2100005D2100005D21000088
:100080005D2100005D2100005D2100005D21000078
:100090005D2100005D2100005D2100005D21000068
:1000A000051600005D2100005D2100005D210000BB
:1000B0005D2100005D2100005D2100005D21000048
:1000C0005D2100005D2100005D2100000D490E4A08
:1000D0000E4B9A423EBF51F8040B42F8040BF8E76E
:1000E00000200B490B4A91423CBF41F8040BFAE750
:1000F0000948804709488047094880470948004720
:10010000FEE70000403C00000000001098000010D6
:1001100098000010F00B00104D220000612100003B
:1001200007190000691A0000044B05481B1A062B2A
:1001300002D9044B03B11847704700BF9B00001061
:10014000980000100000000005490648091A8910AF
:1001500001EBD171491002D0034B03B1184770472E
:1001600098000010980000100000000010B5064C28
:10017000237843B9FFF7D8FF044B13B10448AFF31A
:1001800000800123237010BD9800001000000000C3
:10019000EC3B000008B5084B1BB108490848AFF319
:1001A00000800848036813B9BDE80840CCE7064B57
:1001B000002BF9D09847F7E7000000009C000010E2
:1001C000EC3B0000000000100000000037B50446C2
:1001D00001220020304B02291A708DF804008DF89E
:1001E00003002E4B1DD1032C50D118602C482D4BF1
:1001F0008DF802201860C1F34213684601F01F0118
:10020000294D8DF800308DF80110A847C4F3421332
:10021000684604F01F048DF800308DF80140A847AF
:1002200037E051B9012C31D103221A601F4A1D4B0E
:100230001A6002238DF80230DDE70A2905D10B2C64
:1002400024D1022018601A48D1E70F2904D1102CBC
:100250001CD11A601748CAE7192905D11A2C15D1E3
:10026000032212481A60C2E7402904D1412C0DD163
:100270001A60104ADBE7482904D1492C06D1022232
:100280001A60E0E79C2901D19D2CE8E74FF0FF328E
:100290001A6003B030BD00BFE0040010D0020010AF
:1002A00000C00040DC040010E124000000C0094050
:1002B00000800940000001400023944A2DE9F04FDE
:1002C0001370934A934E1179137151795371917947
:1002D0009371D179D37111781370517853709178EB
:1002E0009370D178D3708C4A9E46117913715179ED
:1002F000537191799371D179D371117813705178C9
:10030000537091789370D178D370B04294BF032228
:10031000012298461D468BB00192804A4FEA001A8E
:100320001268059306920199069A4FF0010CCA4093
:1003300051008B46520107929DF804200491CDF89C
:100340000CA0089200245FFA8CF2DDF80C90099260
:10035000BBFBF9F101314908B1F5803F2DD20029ED
:1003600000F0CE8014B1012908BF022122034A43C4
:10037000B2FBFCF2079F02EB0132B7FBF2F2D200B4
:10038000904294BF161A861A0296A842029E94BF03
:100390002F1A471BB74210D9099B90420593DDF8ED
:1003A00020801FFA81FEE3B223D04FF4C0613746AC
:1003B0004F43B7FBF0F7E7B1154601346445D1442C
:1003C000C6D1039A04F1010C52440392049ABCF181
:1003D000100F9344B6D1C821A84294BF2A1A421BD9
:1003E0004A43B2FBF0F222B1019A013A032A019288
:1003F00099D9B8F1020F96BF494A032112F80810A3
:10040000484A1268032A78D8DFE802F002445566A9
:10041000454CD4F8C42042F00802C4F8C420D4F8F3
:10042000A82122F0C00242EA81120521C4F8A821C5
:100430003E4A03F00F031268147B44F080041473E7
:100440004FEA1E245FFA8EFE147182F800E0147BDE
:1004500004F07F041473059C43EA0413DBB282F8B2
:1004600028300723137203231373002382F82430E8
:1004700092F8303043F0800382F8303001234A098B
:1004800001F01F0103FA01F1294B43F822100BB0D0
:10049000BDE8F08F244CD4F8C42042F01002C4F818
:1004A000C420D4F8A82122F4407242EA0122C4F800
:1004B000A8210621BCE71C4CD4F8C42042F080726D
:1004C000C4F8C420D4F8AC2122F4403242EA0142FC
:1004D000C4F8AC210721ABE7134CD4F8C42042F098
:1004E0000072C4F8C420D4F8AC2122F4402242EABD
:1004F0008142C4F8AC2108219AE74FF0FF3197E719
:10050000002C0CBF0121022130E700BFCC020010FB
:10051000D40200103F420F00C400001094000010ED
:1005200020380000D002001000C00F40DC04001092
:1005300000E100E010B51446034B98472046BDE8A3
:100540001040024B184700BFCD010000B902000067
:10055000094B1B68032B07D8DFE803F00207090BE0
:100560002022064BC3F8802070474022F9E7802202
:10057000F7E74FF48072F4E7D002001000E100E0EA
:10058000044B58681B6800F2FF10C01AC0F3080043
:10059000704700BFD4020010064B1B681B7D5B0632
:1005A0005FBF054B18685B68C01A54BFC0F30800F2
:1005B00000207047DC040010D402001070B5194C04
:1005C000002201212068184DA847184E2068B04726
:1005D0000128FBD02068164B1A6859684A40C2F3BC
:1005E00008025AB91C685B68124E5C40C4F30804E8
:1005F00084B922460121A847347070BD5A68511C45
:1006000059601A44127AD2B202705A68C2F30802D0
:100610005A60E1E701222B4632701146BDE8704076
:10062000184700BFDC040010E92300004F2400003D
:10063000D4020010CC020010F8B5EFF3058212F0DE
:100640001F0200D172B60025214B224E8D4208D0E8
:100650005F681C6801347C40C4F3080454B93478E2
:1006600044B902B962B61C4B1B780BB91B4B9847B7
:100670002846F8BD02B962B65F681C6801347C4048
:10068000C4F308043CB9347804B13AB15C6801346D
:10069000C4F308045C6052B908E030BF5F681C68AE
:1006A00001347C40C4F30804002CF6D072B61C68F8
:1006B000671C1F60475D1C4427721C68C4F3080454
:1006C0001C6002B962B60135002ABFD172B6BDE71F
:1006D000D4020010E0040010CC020010BD050000A0
:1006E00010B50D4B18680D4B027DD20713D501785C
:1006F0005C681A68C9B201326240C2F30802002A7B
:10070000F2D01A68541C1A441C6011721A68C2F3A1
:1007100008021A60E8E710BDDC040010C4000010F5
:1007200070B50E4D0E4B2868984700F00E04062C4D
:1007300006D128680B4B984710F09E0F0CD0FEE7AF
:1007400000F00600042801D1074B9847022C03D182
:10075000BDE87040054B184770BD00BFDC040010B9
:10076000432400003D240000E1060000BD05000018
:10077000004B1847210700003022064B000440F4CC
:10078000A060C3F80822C3F81002D3F80022D206F2
:10079000FBD5704700C000502022084B000440F4F5
:1007A0000070C3F80822C3F81002D3F800229206A2
:1007B000FBD5D3F81402C0B2704700BF00C0005090
:1007C0001022064B904040F48070C3F80822C3F812
:1007D0001002D3F80022D206FBD5704700C00050AB
:1007E00008B5014672B6D020034B9847034B41F041
:1007F0008000984762B608BD79070000C107000075
:1008000008B5014672B6D820034B9847034B0846FB
:10081000984762B608BD00BF79070000C107000015
:1008200008B5014672B6F320034B9847034B0846C0
:10083000984762B608BD00BF79070000C1070000F5
:1008400008B5014672B6FE20034B9847034B084695
:10085000984762B608BD00BF79070000C1070000D5
:1008600008B572B6FE20034B9847034BFE2098470D
:1008700062B608BD790700009907000008B572B696
:10088000410001F01E0141EAD0110846034B984790
:10089000034B0846984762B608BD00BF79070000C1
:1008A0009907000072B6430003F01E0343EAD0101C
:1008B000012303FA00F0064BC3F83802D3F80022F4
:1008C0009206FBD5D3F8140262B6C0B2704700BFDF
:1008D00000C0005008B572B6430003F01E0343EA9F
:1008E000D01040F04000034B9847034B0846984710
:1008F00062B608BD79070000C107000008B572B6EE
:10090000F220034B9847034BF220984762B608BD8C
:10091000790700009907000008B572B6FA20024B6B
:10092000984762B608BD00BF7907000010B5044BB8
:100930009847BDE8104040F00100C0B2014B184795
:10094000610800004108000010B5044B9847BDE85D
:10095000104000F0FE00024B184700BF6108000085
:1009600041080000014B1860704700BF38050010B7
:1009700000230221044A53701370044A1171537109
:100980009371D371704700BFF6040010E4040010A7
:100990000021F0B5184B194A9C891268250A6E1E71
:1009A000E4B2107830B90122187158719871D87179
:1009B0001A72F0BD5778BD421CD1042E06D8DFE86C
:1009C00006F015030513130054792146A14210D1F6
:1009D000022F1A600ABF528858605A6059681A8AF2
:1009E0009142E6DD5A60F0BD9178EFE700210C46B8
:1009F000ECE701310244D4E7E404001038050010AC
:100A00000120014B184700BF01080000012100220E
:100A1000034B1970034B19715A719A71DA7170474F
:100A2000F6040010E40400100348837A13F07C0FEE
:100A300001D0024B18477047E404001075200000F5
:100A400010B51E4C0822214600201D4B984708284F
:100A500033D10023A4F10A0043721A4B44F80A3C34
:100A6000038A4360837A13F07C0F22D1C27A092A69
:100A70001BD8DFE802F005221A221A0914221618E0
:100A8000114BBDE8104018478089104BC0B2984701
:100A9000BDE810400022802011460D4B18470D4B39
:100AA000EFE70D4BEDE70D4BEBE70D4BBDE81040CD
:100AB00018470C4BBDE81040184710BDEE0400105D
:100AC00039140000F604001071090000E10700006D
:100AD000AD140000910900000D0A0000010A000099
:100AE000111500001920000070B5194C637A73BB12
:100AF00094F90A306568002B1DDA9DB1412D34BF91
:100B00002A464022134B2168802098476368226858
:100B10001B1A024463602260CBB9402817D101231D
:100B2000237270BD237A93B12A4629468020094B4F
:100B30009847257270BD55B92A462946054B802035
:100B4000984701236372BDE87040034B184770BD9E
:100B5000E4040010AD140000290A000010B5194C7F
:100B6000607A38BB94F90A306268002B14DB164BAC
:100B700052B1216898476368984209DC1B1A636088
:100B800023681844206010BD114610469847C0B134
:100B9000BDE810400D4B1847002AF9D11146104608
:100BA000094B98470028F3D101236372BDE8104038
:100BB000074B18474022BDE8104006490020024B71
:100BC000184710BDE404001039140000111500008E
:100BD000290A0000F6040010004B1847F11FFF1F00
:100BE00038B5044672B6332505484160C3600549EF
:100BF000054B056082600461984762B638BD00BF4E
:100C00003C05001050050010D90B000010B434242E
:100C1000044B1C6058609960DA6018460249034B27
:100C200010BC18473C05001050050010D90B0000FF
:100C300010B43224044B1C6058609960DA60184686
:100C40000249034B10BC18473C050010500500102A
:100C5000D90B000070B5054672B604246FF4D0229B
:100C60000F2C9ABF230303F6FF7302EBC4338B42AE
:100C700019D90F2C85BF04F5FF3303F5F97323034E
:100C8000DB038B420A4E08D12A4621462046B04754
:100C90002A4621462046074B98472A4621462046A9
:100CA000B04762B670BD01341E2CD9D1F9E700BF40
:100CB000310C00000D0C00002DE9F843194D2B6894
:100CC00003B928600023184E184834682044934222
:100CD00021D11C44B4F5007F346020D14FF47A78E0
:100CE000DFF85890124FD9F800002968B0FBF8F0EF
:100CF000104B9847386898B9D9F800002346B0FBE4
:100D0000F8F00A4A29680C4CA047386840B93060AE
:100D10002860BDE8F883CF5CC7540133D7E70020D3
:100D2000BDE8F883B8000010B4000010640500109E
:100D300050050010550C0000E10B0000940000105D
:100D400070B50024064620460131891A8C4200DB2A
:100D500070BDA518A6EBE503DB7B05F007052B416D
:100D600003F00103A34018430134EFE710B51C461C
:100D7000064B98472046064B98472046054B984718
:100D8000054B20469847054B1C8010BDA51600005A
:100D90005D1800007D180000951800006C07001019
:100DA000024B1868B0FA80F04009704774070010D1
:100DB000014B1868704700BF740700104FF40070B3
:100DC0007047000070B504460D46184E184BB6F932
:100DD0000000984744F04000C0B2164CA047280ECF
:100DE000A047C5F30740A047C5F30720A047E8B2D6
:100DF000A0479520A0474FF48055FF20A047030649
:100E000008D405460C4BB6F900009847FF20A047D0
:100E1000284670BD013DF0D1B6F90000064B984759
:100E2000FF20A0474FF0FF35F2E700BF6C0700102E
:100E3000A9180000091800009518000038B54FF4F3
:100E40008054094D00213720A84700212920A847B8
:100E500018B90120054B186038BD013CF2D1044B94
:100E600004489847204638BDC50D000070070010A3
:100E70001D1F00007639000070B504460E46134D64
:100E8000134BB5F90000984744F04000C0B2114C34
:100E9000A047300EA047C6F30740A047C6F307207F
:100EA000A047F0B2A0479520A0474FF48056FF20FE
:100EB000A047030609D5013EF9D1B5F90000064B5C
:100EC0009847FF20A0474FF0FF3070BD6C0700101F
:100ED000A918000009180000951800002DE9F0413C
:100EE000214F224B0546B7F900009847204C7A2045
:100EF000A0470020A0470020A0470020A0470020D6
:100F0000A0479520A0474FF48058FF20A047030634
:100F10001ED40646FF20A04700062860FF20A047F9
:100F20002B6843EA00402860FF20A0472B6843EA73
:100F300000202860FF20A0472B68184328600D4B35
:100F4000B7F900009847FF20A0473046BDE8F08180
:100F5000B8F10108D9D1B7F90000064B9847FF2036
:100F6000A0474FF0FF36F0E76C070010A91800000B
:100F7000091800009518000037B54FF480540F4D44
:100F800000213720A8474FF080412920A84760B9A9
:100F90000B4B01A89847019B13F0804F14BF03200F
:100FA0000220084B186003B030BD013CE8D1064B6D
:100FB00006489847034B20461C60F4E7C50D000027
:100FC000DD0E0000700700101D1F00009B3900009F
:100FD000F7B51B4D1B4BB5F9000098471A4C48203C
:100FE000A0470020A0470020A0470120A047AA203A
:100FF000A0478720A0474FF47A16FF20A04703069A
:1010000013D4012602AF07F8080DFF20A047B855FA
:101010000136052EF9D1B5F900000C4B9847FF2099
:10102000A0479DF8000003B0F0BD013EE5D1B5F941
:101030000000064B9847FF20A0474FF0FF30F2E733
:101040006C070010A918000009180000951800008E
:1010500070B546F2A810134B9847134B1024B3F900
:101060000000124B9847124DFF20A847013CFBD1CE
:10107000214620460F4B9847012803D00E4B0020F5
:101080001C6070BD0D4B9847012803D10C4BBDE887
:1010900070401847052801D10A4BF8E70A4B0B4866
:1010A0009847EBE7191600006C0700109518000030
:1010B00009180000C50D000070070010D10F0000D6
:1010C000790F00003D0E00001D1F000032390000A6
:1010D0002DE9F041114D124E0746124BB5F90000B3
:1010E000884634469847FF20B047FE28FBD13E464D
:1010F000F31B98454FF0FF000BDCA047FF20A047F3
:10110000B5F90000084B9847FF20A0470020BDE834
:10111000F081A04706F8010BEAE700BF6C0700105A
:1011200009180000A91800009518000038B50C4BEC
:1011300005461B685A1E012A0CD849021120094B8A
:101140009847044650B94FF400712846064B98471B
:10115000204638BD032B18BF0021EFE70124F7E735
:1011600070070010C50D0000D11000002DE9F041FE
:101170000746184D184BB5F900008846174C98479C
:10118000FE20A0473E46F31B984512DCFF20A047F7
:10119000FF20A047FF20A04700F01F0005280CD02B
:1011A000B5F900000E4B9847FF20A0470120BDE88D
:1011B000F08116F8010BA047E5E7FF20A0470028C3
:1011C000FBD0B5F90000064B9847FF20A047002050
:1011D000BDE8F0816C070010A91800000918000094
:1011E0009518000038B50C4B05461B685A1E012A9D
:1011F0000CD849021820094B9847044650B94FF4BF
:1012000000712846064B9847204638BD032B18BF6F
:101210000021EFE70124F7E770070010C50D00007B
:101220006D1100007FB5002109202A4B9847044624
:1012300030B12948294B98470024204604B070BD9E
:1012400010216846264B9847054618B12548234B80
:101250009847F2E77E227F216846234EB047044636
:1012600008BB224B1B68032B01D12148EFE73E222C
:1012700049216846B0472F22054631216846B047CC
:101280005022044653216846B0470123013583406C
:101290000234B3F5007F05FA04F42BBF5B0A8440E7
:1012A0005C43640AC9E701280FD1104B1B68032B6C
:1012B00004D01048094B98472C46BEE73022452100
:1012C0006846B04701308402B7E70146034B0A483D
:1012D0009847F1E7790E0000233800001D1F000039
:1012E000D110000054380000410D000070070010BC
:1012F00086380000B8380000EB380000002310B535
:101300000C4C23600C4B984760B10C4B98474FF442
:10131000007120600A4B10209847044620B109480C
:10132000094B9847012402E00848094B984720469A
:1013300010BD00BF740700105110000025120000FE
:10134000C50D0000083900001D1F000080841E002C
:101350001916000010B5134AD2F8C43043F0004308
:10136000C2F8C430104BD3F8F42F42F01202C3F885
:10137000F42FD3F8F82F122AFBD10C4C636823F01A
:1013800070536360636843F0A0536360084B9847F1
:10139000236923F440332361236943F480232361C9
:1013A00010BD00BF00C00F4000C0005000C0024090
:1013B00049090000004B18474909000010B572B6F2
:1013C0004FF48072104BC3F80822420002F01E0254
:1013D00042EAD0100122D3F8444282401443C3F8B9
:1013E0004442C3F84802C3F84C1262B6D3F8001264
:1013F000C905FBD54FF48071C3F80812D3F8341235
:101400000A43C3F8342210BD00C000500C2210B5AE
:10141000064B074CC3F8042240218020A0474021FE
:101420000020A047BDE81040024B184700C0005004
:10143000BD1300002D090000F8B572B6840004F059
:101440003C04174B44F00104C3F82842D3F820426F
:101450002405FBD5D3F82042C4F30904944202DDED
:1014600062B62046F8BDA4B100252B460C4E93422F
:1014700011D013F0030708BFD6F81852032FCD542C
:101480004FEA152503D1D6F82872FF0703D501339B
:10149000EDE7D3F81832034B9847034B9847DFE743
:1014A00000C000507D080000FD08000070B5144623
:1014B00072B68200134B02F03C0242F00202C3F803
:1014C0002822C3F82442C4B10025D3F828624A195F
:1014D000B60701D5A5420BDB0B4B98470B4B984742
:1014E000BFF36F8F62B6A5422846A8BF204670BDE5
:1014F00012680435C3F81C22E7E7C3F81C422546EE
:10150000EAE700BF00C000507D0800001909000094
:1015100080210020004B1847D5080000F7B52F4B5D
:10152000D3F80022D70744BF0122C3F80822D3F81A
:101530000022160712D50822C3F80822284B984724
:10154000C5060BD5274B9847274C40218020A04744
:1015500000204021A0470220244B98471F4BD3F87E
:10156000002254071AD5D3F83042E00706D50020F0
:101570001F4B9847410713D51E4B9847A20706D526
:101580001B4B80209847C30701D41B4B984734F06E
:1015900003030FD10422114BC3F8082203B0F0BD9E
:1015A00010F0010001D0154BE7E708226946144B03
:1015B0009847E3E708250324084E0D4FD6F830324C
:1015C0002B4204D0601040EAC410C0B2B8470134C6
:1015D000202C4FEA4505F1D1DCE700BF00C00050E8
:1015E0006108000019210000BD130000210800005F
:1015F000A5080000410A0000E90A00005D0B000098
:1016000039140000684620F007018D4601B5BDE899
:1016100001408546704700001E4A1F4BB2FBF0F2A6
:101620001A601E4B1B68A3B1B0F5C07F12D86FF0D3
:1016300001011A7C00221974597C5A74997C9A749D
:10164000D97CDA741A68D2B21A601A6842F47F42FE
:101650001A607047124988420CD902211A7C002274
:101660001974597C5A74997C9A74D97CDA741A6802
:10167000D2B2EDE702F0FE0119611968C9B2196032
:1016800018691968B2FBF0F2013A120292B20A43E9
:10169000DEE700BF40787D0180070010780700106A
:1016A00020BCBE002DE9F04101240E461546074638
:1016B00000F01F01224604FA01F1DFF84881C0F36F
:1016C0004210C04706F01F0104FA01F10022C6F3E0
:1016D0004210C04705F01F01224604FA01F1C5F38C
:1016E0004210C047092F414C3ED1082E7AD1072D18
:1016F00078D13F4B2360A3F580431A6822F47C2203
:101700001A601A6842F428221A6003F55023D3F8AD
:10171000A82122F44012C3F8A821D3F8A82142F44A
:101720008012C3F8A821D3F8C42042F48062C3F821
:10173000C4202368B3B11A6842F21070120C12046C
:101740001A601A6842F007021A605A6822F00F0203
:101750005A605A685A60274B98472268536843F08A
:1017600002035360BDE8F081122F2AD1112E39D126
:101770000F2D37D1204B2360A3F5B8231A6822F030
:1017800040421A601A6842F000421A605A6822F019
:101790003C025A605A6842F028025A6003F550230E
:1017A000D3F8AC2122F44062C3F8AC21D3F8AC21C9
:1017B00042F48062C3F8AC21D3F8C42042F4001292
:1017C000B5E7382F0ED1372E0CD1342D0AD10A4B64
:1017D0000A4A2360D36843F4703343F44073D36000
:1017E000074BDDE700232360A3E700BF7807001065
:1017F00000000340191600000080084000C00240AD
:1018000000C00F40C1240000074B1B684BB1DA68D1
:101810009107FCD59860DA685207FCD59868C0B289
:1018200070471846704700BF78070010002307B5BF
:101830008DF802308DF804308DF80330C0F3421378
:1018400000F01F008DF800308DF80100024B684653
:10185000984703B05DF804FBE1240000004B1847F3
:101860002D1800000A46012100F01F039940C0F323
:101870004210014B184700BFC12400000121014B59
:10188000184700BF651800000021014B184700BF32
:1018900065180000012100F01F039940C0F34210B9
:1018A000004B1847C9240000012100F01F03994094
:1018B000C0F34210004B1847D124000070B5044615
:1018C0000D46054B984720461DB1044BBDE87040BE
:1018D0001847034BFAE700BF7D1800009518000079
:1018E000A918000010B5064B0446C0F342109847F3
:1018F00004F01F04E04040F30000C0B210BD00BF80
:10190000D92400007047704700207047002382B040
:101910000093009B834202D3019802B07047009B62
:101920000193009B0133F3E72DE9F0431D48ADF52A
:10193000037D1D4CA0474FF400734FF480451B4FAF
:10194000DFF88480DFF884900193019EB6F5007F74
:1019500016D01648164B9847B5F5804F19D915483B
:10196000A047154C154B20689847154B01902168EE
:101970001868144B984701200DF5037DBDE8F083EE
:1019800001AB324602A93846C04720B10748084B90
:1019900098470020F0E72846324602A9C847019B35
:1019A0001D44D2E70F3A00001D1F0000B4090010CB
:1019B000013500002B3A0000080000101935000026
:1019C00004000010ED35000021330000B90C0000C8
:1019D00008B51C20014B984708BD00BFE518000062
:1019E00070B5084B9847084B9847084B9847084CE8
:1019F000084DA04718B1084BBDE870401847A847EC
:101A0000F7E700BF3D1F0000551300000D14000054
:101A1000052100001D150000B513000010B50A4C8B
:101A20000A490B4B002098470122216809480A4BBC
:101A3000984718B9BDE81040084B18472168084B73
:101A400008489847002010BD0400001086070010C9
:101A5000B1310000B4090010D13100002919000093
:101A60001D1F00003A3A0000F8B53E20584B984739
:101A700000213E20574B9847574B98471C20574B07
:101A800098471C20564B98474FF4E132022103201F
:101A9000544B9847544B012219685448544CA04762
:101AA000544B9847074610B15348544B9847062368
:101AB000072208210920524D524EA847B04720B9AD
:101AC000514B98477FB9514815E05148A047002F26
:101AD000F9D010230F2211211220A847B04760B17E
:101AE0004C48A04701E00028F3D04B4B984738B151
:101AF0004A4B98474A48A0470AE0434B9847F4E7C7
:101B00004FF480431B68013301D14648F3E71FB906
:101B10004548A047454B984744F204014448A04734
:101B2000444CA0470028FCD1434B984743483349D5
:101B300088474FF48042424B9A600122414BC3F8E0
:101B40008020AA22C3F88C205522C3F88C20D3F819
:101B5000882012F00072FAD1C3F88020AA22C3F8BC
:101B60008C205522C3F88C20364A1346D2F88800C0
:101B700010F08070FAD1C2F8A000AA20C2F8AC0020
:101B80005520C2F8AC00D3F8A82012F40072FAD1A4
:101B90001868C0F30B001860186840F4A040186083
:101BA000C3F804214FF47A70C3F80C21C3F8A021C4
:101BB0008847BFF35F8FBFF34F8FBFF36F8F4FF433
:101BC00080431B6883F3088844F204031B6898472A
:101BD0007D180000BD180000872500005D1800007A
:101BE00089180000350500000C0000104E3A000076
:101BF0001D1F0000D1190000404B4C000D190000C2
:101C00006D0D0000FD1200001D1A0000EA3A0000F0
:101C10005F3A0000703A00006D2500007925000051
:101C2000923A0000A73A0000BE3A0000E119000015
:101C3000D33A00009905000051050000C0C62D00F0
:101C400000ED00E000C00F40004870476A6574C9AD
:101C5000022870B50D46144609DC064EB047A04276
:101C6000FCDB21462846BDE87040034B1847104670
:101C700070BD00BF810500003906000008B50248AC
:101C8000024B9847FEE700BFF23900001D1F00001D
:101C900008B50248024B9847FEE700BFD039000064
:101CA0001D1F000008B50248024B9847FEE700BF21
:101CB000E13900001D1F000008B50248024B98479B
:101CC000FEE700BFC03900001D1F000008B5024834
:101CD000024B9847FEE700BFFD3900001D1F0000C2
:101CE00002460346981A13F8011B0029FAD17047DF
:101CF00070B5064B064608460D4698470446024610
:101D000029463046024B9847204670BDE11C000032
:101D1000511C0000F0B50A2500262F463146104A16
:101D2000104B1468DFF840E0984202D2012B00D03B
:101D300051B1B0FBF3F606F1300C03FB160001269F
:101D40000EF804C001310134013DB3FBF7F3EBD1D0
:101D500006B1146000201368034AD0540846F0BD51
:101D6000D809001000CA9A3BDC090010002810B501
:101D70000CDA074A012413684042591C11602D21D6
:101D8000044AD154044B9847204410BD0024F9E77D
:101D9000D8090010DC090010151D0000F0B503463D
:101DA00028B3002413F0704F16D000210846144ABF
:101DB000144D1668DFF850C0354437187BB904EB72
:101DC000000EBEF1070F0ADD01B1176000210C4BB8
:101DD0000C4A1B68D154F0BD1B010134E2E7190F16
:101DE00011F80C101B01295401300121E5E70449C9
:101DF0000A68501C08603020024988541846E5E7FC
:101E0000D8090010DC090010263B00002DE9F3473B
:101E10000026804615463446DFF8FC90374F01F126
:101E2000FF3A1AF8013F8DF807301BB9304602B06F
:101E3000BDE8F087002C55D000223A60A3F1630280
:101E4000152A46D8DFE802F0302A45454545454584
:101E500045144545454045450B452345453A2968C8
:101E60004046274B98472C1D06442546002403E096
:101E7000042C14BF042408243A68002AD1D0214934
:101E80004046C8473B681E4400233B60C9E7042C1A
:101E9000ECD828681C4B2C1D9847E6E7042CE5D8A5
:101EA0002C1D2868194BF7E72B6802A901F8013DA2
:101EB000012240462C1DC8470136D6E7042CD5D850
:101EC0002C1D2868124BE7E7022212490020C84760
:101ED000F6E70C4A252153700024022311709470F8
:101EE0003B60C9E7252B06D001220DF107014046D2
:101EF000C847013695E7022493E700BFD8090010D0
:101F0000F11C0000DC090010151D00006D1D000013
:101F10009D1D0000373B0000511C00000FB407B5A9
:101F200004AA52F8041B044B01920020984703B006
:101F30005DF804EB04B070470D1E000008B50348BF
:101F4000034B9847034A044B1A6008BD1600001063
:101F50006509000000400000EC0900100E4B018AEA
:101F600003600E4A838941600D4802EB43230360FE
:101F700081B10B440B490A44934294BF03220A22C5
:101F800009490A4B95BF0A700A70052208211A7187
:101F900088BF1970704700BFF009001000400000B2
:101FA000EC09001000C00700E80900101000001044
:101FB00009220D4B30B51A7083890C4A0C4902EB8B
:101FC00043230B60018A0B4D5C182A44944202D8CB
:101FD0000360416030BD0023037143718371C3719D
:101FE0000123037230BD00BFE8090010004000006B
:101FF000EC09001000C007000022044B1A700222F6
:102000001A71034A034B1A60704700BF100000109A
:1020100000400000EC090010837A03F07F03212BBD
:102020001CD1C37A013B052B18D8DFE803F0030568
:10203000071510150A4B18470A4BFCE70A4B0622F6
:1020400003600023027143718371C3717047074BB2
:10205000012203600023F5E7054BECE7704700BF62
:102060005D1F0000B11F000010000010E809001003
:10207000F91F000070B5837A044603F07F03212B1B
:1020800033D1C37A022B28D0032B13D0012B2CD1B0
:10209000038A164DE3B1164E4FF4007215493068AD
:1020A000154B984780B9228A33681344336005235F
:1020B0002B7170BD0D4B114A1B79082B137014D175
:1020C000BDE870400E4B184706232B700A23EFE73C
:1020D00006220A4B1A700823EAE70922034B1A71F9
:1020E000034A018A13680B44136070BD100000108E
:1020F000EC090010F0090010B90C0000E80900100C
:10210000B5130000034B1878A0F10803584258415A
:10211000704700BFE809001008B50A4B1B78063B62
:10212000022B0DD8084B9847BFF34F8F0749084B38
:10213000CA6802F4E0621343CB60BFF34F8FFEE73F
:1021400008BD00BFE8090010B513000000ED00E075
:102150000400FA05FEE7FEE7FEE7FEE7FEE7000003
:1021600008B5064B9847064B98470648064B9847D4
:1021700008BDFEE7FEE7FEE7FEE7FEE77523000089
:10218000A523000000000000DD23000010B5294B4E
:102190002949D3F88820C2F30162032AD3F80C211D
:1021A00002F0030234D1012A17D0022A1FD0D3F83B
:1021B0008840D3F88800D3F80421204BC4F30E04E0
:1021C00004FB0333C0F307400130B3FBF0F3D2B29A
:1021D0000132B3FBF2F30B6010BDD3F88840D3F8A3
:1021E0008800C4F30E04D3F80421154BE8E7D3F8B4
:1021F0008820D3F88840D3F80401C2F30E030133DA
:10220000C4F3074201321B04B3FBF2F3C2B2DFE7AF
:10221000D3F80431012ADBB203F1010305D0022A0D
:1022200005D0084AB2FBF3F3D5E7074AFAE74FF4C3
:102230000042F7E700C00F409400001000127A003F
:1022400000366E0100093D00001BB700202310B5C9
:10225000414C86B0C4F8A031D4F8A0319B0603D518
:10226000D4F8A0315806FBD50023C4F8A831C4F82F
:10227000AC310123C4F80C310223C4F804313623F5
:1022800001A900936846354B9847029B13F4801FC1
:1022900018BF0E224FF0AA0308BF314AC4F88420A9
:1022A000C4F88C3055230122C4F88C302A4BC3F873
:1022B0008020AA22C3F88C205522C3F88C20D3F8A2
:1022C00088205101FBD50322C3F88020AA22C3F83D
:1022D0008C205522C3F88C201F4BD3F8882012F095
:1022E000407FFAD02322AA21C3F8A420012055223E
:1022F000C3F8AC10C3F8AC20C3F8A000C3F8AC100E
:10230000C3F8AC20144B1C46D3F8A8205205FBD5CB
:102310000322C3F8A020AA22C3F8AC205522C3F898
:10232000AC20D4F8A83013F4407FFAD00D4B984776
:102330000D4B0E4AC4F8C4300023C4F8C83145F22E
:102340003A0323600A4B1B6823F0404323F07F03CA
:10235000936006B010BD00BF00C00F40F11FFF1F0B
:10236000180001008D2100000884208000ED00E0AD
:102370000000000001224FF0FF31094BC3F880102C
:10238000C3F88420C3F88011C3F8842100221046CA
:1023900099180132202A81F80003F9D1704700BF53
:1023A00000E100E04FF020620A4B0B495A60002226
:1023B0009A60D96011461A615A6198180132202A30
:1023C0000176FAD14FF0FF3259629A62DA621A63EB
:1023D000704700BF00ED00E00000FA05014B986077
:1023E000704700BF00ED00E0062996BF114B0023A7
:1023F00033F81130012A104A09D1904203D14268C2
:1024000013434360704742681343436070479042F0
:102410006FEA030306D1426822F070029205920D22
:102420001340EEE7426822F0F8029205920D134045
:10243000EBE700BF3A3B000000000140007DC0B266
:102440007047806820F030008005800D7047007D67
:1024500080F04000C0F3801070470000042807D8C7
:10246000064B53F820301BB11AB11A68114319609A
:1024700070471A6822EA0101F9E700BF483B0000F3
:10248000042804D8024B53F8203003B199617047F7
:10249000483B0000042804D8024B53F8203003B115
:1024A000D9617047483B0000042805D8034B53F816
:1024B000200010B14069704700207047483B000081
:1024C000004B18475D240000004B18478124000092
:1024D000004B184795240000004B1847A924000022
:1024E000F0B5457803232A460F2D88BFA5F11002C9
:1024F0004FEA420203FA02F36FEA0303047890F80A
:1025000002E04FEA440688BF0136B10001F1804184
:1025100001F530310F680EFA02FE1F4047EA0E0740
:102520000F60104F57F826100B40C17801FA02F2E5
:10253000134347F8263002790B4B012A07D102FAE0
:1025400005F553F82420154343F82450F0BD01222B
:1025500002FA05F553F8242022EA050243F8242064
:10256000F0BD00BF40C0024068C002404FF0804351
:102570001878C0F3800070474FF08042137803F062
:10258000FB031370704772B64FF08043AA221A7291
:1025900055221A7262B6704701380A44914200D13E
:1025A000704711F8013B00F8013FF7E72DE9F843C8
:1025B000D0F82A5004468D420F4602D10020BDE8D3
:1025C000F88303796BB9002FF8D001233A4604F160
:1025D0002E016078144DA84768B9C4F82A70BDE888
:1025E000F88300F12E09114E01232A46494640780E
:1025F000B047B04610B10120BDE8F883D4F81E30D2
:10260000D4F81A20207113449D42DCD2E678012EC2
:10261000D9D9D4F81A3049461D442A460123607896
:10262000013EC047F6B2F2E73937000065370000D7
:1026300008B5036873B11A7862B1D988828891426B
:1026400008D15878044B984710F0010F14BF0320AD
:10265000002008BD092008BD21370000CA7E8B7EFE
:10266000032843EA022301BF487D0A7D42EA002293
:1026700043EA02431846704738B50A46044600F15B
:102680002E01012340780F4DA847B8B994F82D22A8
:1026900094F82C3243EA02234AF6552293420FD192
:1026A000636E094A23F07F4393420AD0D4F8800036
:1026B00020F07F40801A18BF012038BD032038BDAC
:1026C000022038BD3937000046415400F8B5036890
:1026D00016461D78303D092D1ED85A783A2A1BD14E
:1026E0000233036000230B60002D40F009818A4B08
:1026F0001C68002C00F006810C60237873B16078B0
:10270000864B9847C70709D4002E00F0FD8041078B
:1027100040F1FC800A20F8BD0025E3E70020804B53
:10272000207060709847C20700F1F2800EB1430735
:10273000F0D4002120467B4EB047012840F0CA80EB
:1027400094F8F0310BB90D20F8BDD4F8F4512046BF
:102750002946B047032800F0DD800028F3D194F823
:102760003A2094F8393043EA0223B3F5007FEAD1E6
:1027700094F8453094F8442094F83E1052EA03222D
:1027800008BFD4F852204B1E012BC4F81A20E17068
:10279000D9D894F83B60A670002ED4D0731E334273
:1027A000D1D194F8403094F83FE04EEA032E1EF069
:1027B0000F0FA4F808E0C6D194F8420094F8413015
:1027C00094F83D7053EA002394F83C0008BFD4F815
:1027D0004E3050EA0727B6D0514307EB1E1008448D
:1027E0008342B0D31B1AB3FBF6F3002BABD040F6F9
:1027F000F576B34270D94FF6F576B3428CBF032617
:10280000022628440233C4F82600032E05EB0700F5
:10281000C4F81630C4F81E0060D1BEF1000F92D18A
:10282000D4F85A109B00C4F8221003F2FF13B2EB45
:10283000532F88D34FF0FF33A373E3732374637470
:102840000023032EA372E3722373637330D1637189
:1028500094F85E2094F85F3004F12E0142EA0322DE
:102860002A44C4F81220012360782F4DA847F8B9F4
:1028700094F82D2294F82C3243EA02234AF655228A
:10288000934215D1D4F82E20284B9A4210D103F14F
:10289000FF53D4F8122203F5005320339A4201BFAC
:1028A000D4F81A32C4F80A30D4F81632C4F80E300C
:1028B00000201F4A26701388207101339BB21380B9
:1028C000E38084F82A0084F82B0084F82C0084F834
:1028D0002D00F8BD00253DE7012692E7BEF1000F6F
:1028E0003FF431AF0144022EC4F822104FEA4301F5
:1028F0001BBFC91803F001030B4603EB510394E718
:102900000B20F8BD0C20F8BD3046F8BD2846F8BDB8
:102910000320F8BD0120F8BDBC00001021370000E5
:102920000937000079260000393700005252614112
:10293000C000001038B50021324B044698470346CA
:1029400000285AD12278032A4FD16279002A4CD02C
:1029500004F12E010A4684F82A0084F82B0084F83A
:102960002C0084F82D0004F22E20824246D15523FB
:1029700084F82C32AA2384F82D32522384F82E3086
:1029800084F82F3061234122722084F8303084F89B
:102990001532D4F80E3084F8312084F81422C3F3B1
:1029A000072284F8163284F817221A0C1B0E84F8BA
:1029B0001932D4F80A3084F81822C3F3072284F8B5
:1029C0001A3284F81B221A0C1B0E84F8120284F8A7
:1029D000130284F81C2284F81D32D4F8122001233B
:1029E0006078094DA8470023637100226078114682
:1029F000064B9847003018BF012038BD02F8013B54
:102A0000B3E700BFAD250000653700009137000037
:102A1000D0F816300239023B99423DBF8378D0F896
:102A2000260001FB030000207047000001292DE96A
:102A3000F04106460D4666D9D0F81630994262D26A
:102A40000378022B2DD0032B3FD0012B09D101EBB2
:102A50005107D0F81E10DFF8B48001EB5721C047B2
:102A600018B14FF0FF30BDE8F081D6F81E10C7F363
:102A700008030137334401EB5721304693F82E40C9
:102A8000C0470028EDD1C7F308073E4496F82E0052
:102A9000EB0744EA00204CBF0009C0F30B00BDE87F
:102AA000F081D0F81E10194B01EB15219847002832
:102AB000D7D16D0005F4FF75354495F82F3095F8A2
:102AC0002E0040EA0320BDE8F081D0F81E100F4B25
:102AD00001EBD51198470028C3D1AD0005F4FE7570
:102AE00005F12E0333449878DA783544000440EA3F
:102AF000026095F82E205B78104340EA032020F016
:102B00007040BDE8F0810120BDE8F081AD250000F6
:102B1000F8B50D46C18081680446012901D1022023
:102B2000F8BD0368D3F816209142F8D2D9B91A78C3
:102B3000032A02D1D3F82210A9B9002222736273AA
:102B4000A273E2731A89AA42E9D9D3F8223003EBBF
:102B500015132361236805F00F052E3303EB45158C
:102B600065610020F8BD9E780D4F3601B5422068A2
:102B700006D2E1600B4B984700EB15102061E9E7A6
:102B8000B847431C014609D00128C8D92368D3F8A7
:102B900016309842C3D2AD1BADB2E7E70120F8BDB5
:102BA0002D2A0000112A000010B5084BC1880446E8
:102BB000984750B921692068054B984728B9E52204
:102BC00063691A70012223681A7110BD112B00006D
:102BD000AD25000001292DE9F04105460C461646B9
:102BE00078D9D0F81630994274D20378022B3DD0B0
:102BF000032B4ED0012B6BD101EB5107D0F81E10E7
:102C0000DFF8D88001EB5721C04718BBC7F3080392
:102C100014F001042B4417BF93F82E10F1B201F009
:102C20000F0031011CBF01F0F001014383F82E10A9
:102C30000123D5F81E1001372B7101EB57212846CF
:102C4000C04738B9C7F308072F443CB1C6F3071291
:102C500087F82E2001232B71BDE8F08197F82E20F4
:102C6000C6F3032622F00F023243F1E7D0F81E101C
:102C70001A4B01EB142198470028EBD1640004F4AF
:102C8000FF742C44C6F3072284F82E6084F82F20AA
:102C9000E0E7D0F81E10114B01EBD4119847002843
:102CA000D8D1A40004F4FE7404F12E012944CB7899
:102CB0002C441B0603F0704343EA0602C2F30723C9
:102CC00084F82E204B70130C120E8B70CA70C1E763
:102CD0000220BFE70220BDE8F08100BFAD25000063
:102CE0002DE9F04105460F46A9B9D0F80A60EEB1CA
:102CF000D0F816309E4228BF01263446DFF88C807B
:102D0000D5F8163001349C4213D3012E10D800247C
:102D10002046BDE8F0811D4B98470128044632D972
:102D2000D5F816309842F3D33E46E6E70126E4E7AD
:102D3000022421462846C04748B1411C02D14FF029
:102D4000FF34E5E701281ED0B442D9D1DFE76FF0A8
:102D50007042214628460E4EB04790B95FB9D5F86B
:102D60000E30C5F80A405A1CD2D0013BC5F80E30CF
:102D700001236B71CCE7224639462846B04700282C
:102D8000EDD00128DBD00124C2E700BF2D2A0000CE
:102D9000D52B00002DE9F047C58804460135ADB2BA
:102DA000884615B90420BDE8F0870369002BF9D0E7
:102DB00015F00F0707D1C16801330361006859B9E5
:102DC0000389AB42EED92368E5802E3303EB47132A
:102DD00063610020BDE8F0878378013B13EA151397
:102DE000F1D12F4B98470128064602D80220BDE8B2
:102DF000F087421C02D10120BDE8F0872068D0F89E
:102E000016309E422FD3B8F1000FCBD0E168254B8E
:102E10009847064600283FD00128E7D0431CEAD057
:102E200000212068DFF88480C0470028E3D12368B0
:102E300003F22E222E3393421CD1226831461046D3
:102E4000194B98474FF000094FF0010AC2F82A00C9
:102E500020685FFA89F2837893420ED8D0F82A303E
:102E60009B1AC0F82A30E660314620680E4B98471E
:102E70002061A8E703F8010BDDE780F804A000213A
:102E8000C04709F101090028B5D12268D2F82A30DB
:102E90000133C2F82A30DBE70720BDE8F08700BF26
:102EA0002D2A0000E12C0000112A0000AD250000B1
:102EB0002DE9F8430B7804462F2B0D4601D05C2BEF
:102EC00000D10135002626726672A672E6722B7852
:102ED0001F2B36D95F4E2B78AC462F2B05F1010501
:102EE000F9D05C2BF7D0A0692021034600F10B023A
:102EF000934230D14FF000084FF0080E4546474648
:102F00000CF1FF3919F8013F0135202B2DD92F2B5A
:102F10002BD05C2B29D02E2B00F08480C6450DD9F8
:102F20001A0644BF803BF35C4B4948BF47F0030798
:102F300011F8012F002A7ED09342F9D10620BDE876
:102F4000F88331462046454B984726756675A67529
:102F5000E675BDE8F88303F8011BC9E747F00207EF
:102F600000F8083008F10108CCE7212B654434BF94
:102F700004230023B8F1000FE0D00178E52904BF55
:102F800005210170BEF1080F04BFBA00D7B207F0E7
:102F90000301012907F00C0208BF43F01003042AC3
:102FA00008BF43F00803C372002120462B4B98470B
:102FB000E0B9DFF8B4802A4F21692068C047A8B97A
:102FC00062691378EBB1D37A19070AD4A36903F1C4
:102FD0000B0C9C450AD012F801EB13F8011B8E452F
:102FE000F7D000212046B8470028E5D0A369DB7A56
:102FF00048B104282CD113F0040F08BF0520BDE808
:10300000F8830420F2E75A0722D46169CB7ADB0601
:1030100005D523681878134B9847A0605BE7052017
:10302000BDE8F883BEF1080F88D1BA00F046D7B2E8
:103030004FF00B0E66E7A3F14102192A8ED9A3F1D6
:103040006102192A9EBF203B47F00107DBB287E7E8
:10305000BDE8F8835C3B0000DB3B0000112B000067
:10306000952D00005D260000AD2500002DE9F04102
:1030700000211A4B05469847044698B9184EDFF8C8
:103080006880374629692868B047044650B96B699B
:103090001B78E52B0CD05BB101212846C0470446C4
:1030A0000028EFD02046BDE8F08103F8011B0AE0BC
:1030B00029692868B84704460028F3D16869214681
:1030C000034600F120029A42EFD10B22054BA96979
:1030D000984701222B681A71E4E700BF112B00000A
:1030E000AD25000099250000952D000070B504461F
:1030F0000420114D114E216909B968B113E020680F
:10310000A84780B9626913789BB1E52B06D02E2BB6
:1031100004D0D37A1B0701D4002070BD00212046C3
:10312000B0470028E7D0002323746374A374E374CA
:1031300070BD0420F7E700BFAD250000952D00000D
:1031400001292DE9F04104460D4602D80220BDE8D0
:10315000F081D0F816309942F8D2134FDFF84C8046
:10316000D4F816309D4204D229462046B847064678
:1031700010B90020BDE8F0810128E7D0411C0FD034
:10318000002229462046C04758B9D4F80E303546AB
:103190005A1C1FBF0133C4F80E3001236371DFE7EF
:1031A0000120BDE8F08100BF2D2A0000D52B0000D2
:1031B00048B9064B1A6802B1107009B100220A70B2
:1031C0001960002070470B20704700BFBC00001042
:1031D0002DE9F0438DB0019116460546002800F018
:1031E0008B80002302F01E02037043708370C37053
:1031F00005A901A8434B984700284BD102AB0B937C
:10320000019905A8404B98470A9C10B9002C08BFAB
:10321000062016F01C0F06F01F0746D000283CD0F1
:10322000042837D105A8394B984798BB0A9C47F02A
:1032300008073E0742D5364B98470026C0F30723C0
:10324000A073E373030C000E2374E6726074DDF860
:10325000148026776677A677E67798F800002D4BDE
:10326000214698470123A676E6762675667588F886
:103270000430064610B30146274B4046D8F82A9042
:10328000984738B90598013EC0F80A604946234B73
:10329000984798B10DB0BDE8F083E37A13F0110FB1
:1032A0002ED17307C5D50820F4E70028F2D1E37AC0
:1032B000D80623D4B10701D5DA0721D4059E3B07F0
:1032C000D6F82A3048BF47F02007EB612C62AF7177
:1032D0003078104B2146984728610020E369287216
:1032E000EB606872A872E87228766876A876E8764D
:1032F0002E60F388AB80CDE70920CBE70420C9E737
:103300000720C7E7CD260000B12E00006D30000079
:10331000491C00005D26000041310000AD25000081
:103320002DE9F74F9A460023CAF80030494B04466E
:10333000884615469847074680BBA37918061ED4D1
:10334000D90740F18580E368A6689E1BAE4228BF7E
:103350002E461EB3A268C2F30803002B5FD120687B
:103360008378013B03EA522313F0FF031BD142B9D8
:10337000206901280BD8A37963F07F03A37102278A
:103380000CE06169344A01939047019BF1E7421CCC
:1033900008D10127A37963F07F03A371384603B0F6
:1033A000BDE8F08F6061D4F800B0019361692B4BE8
:1033B00058469847019B0028DDD0750A00EB0309A9
:1033C0002BD09BF802205919914288BFD51A9BF83F
:1033D0000100EBB24A464146DFF88CB0D8470028DE
:1033E000D7D121680B7963B1D1F82A00A0EB09008D
:1033F000854206D94FF400722E3108EB4020184B5D
:1034000098476D02A368A8442B44A360DAF8003003
:10341000761B2B44CAF800309BE7C4F81890A568C7
:10342000A169C5F30805C5F50075B54220680D4BC7
:1034300028BF354698470028ABD1A3682168C3F35D
:1034400008032E3319442A464046054B9847D9E7CE
:103450000727A3E7312600002D2A0000112A0000CB
:1034600099250000AD2500003937000070B5204BCC
:1034700005469847002839D1AB799B0636D5E969CE
:1034800028681C4B9847064680BB2C6AE37A43F0B9
:103490002003E372EB682377EB68C3F307236377BA
:1034A000EB681B0CA377EB681B0EE3772B69A37605
:1034B000C3F307221B0C23751B0A6375E2760E4BC0
:1034C0009847C0F30723A075E375030C000E23761D
:1034D0006076A674E674AB79286823F02003AB719C
:1034E00001230371BDE87040044B184770BD00BF55
:1034F00031260000AD250000491C000035290000E0
:1035000010B5044B0446984718B920706070A0703D
:10351000E07010BD6D34000070B594B001900122D0
:1035200006A901A8284B9847044600282DD103ABD3
:103530000C93019906A8254B9847044628BB0B9E7F
:1035400036B3F37A13F0010F18BF0724069B3146F8
:1035500018781F4B98470546BCB9F37ADB0625D58A
:1035600001281FD91C2206A90DA81A4B9847022131
:103570000DA8194B0F959847044630B90DA8174B65
:103580009847044680B1042810D0204614B070BD7E
:103590000624DBE729460698114B98470446002885
:1035A000F3D10BE00224F0E70724EEE706A80D4B69
:1035B000984704460028E8D1002DEBD106980A4B25
:1035C00098470446E1E700BFCD260000B12E000079
:1035D0005D26000099250000112B0000ED30000051
:1035E00041310000A92B00003529000070B59AB0C8
:1035F00001900E4601220CA901A83A4B98470028D9
:1036000068D10C9B019913930CA803AB364D129310
:10361000A84700285ED1119900295DD015220B31F1
:1036200006A8324CA0470CA913A81C22A04731467B
:1036300013A8A847002851D004284BD113A82C4B1D
:103640009847002846D1189D13220DF11A0105F163
:103650000D00A0479DF8183043F02003EB720123C2
:103660000C9C2371159B0E9A9A422CD0EB7ADB06A8
:1036700029D529461F4B207898471F4B01462046E5
:103680009847014660B320461C4B984710BB0C9AE4
:1036900092F84F302E2B16D11378032B159B04D1A3
:1036A000D2F822108B4208BF0023C3F3072182F80F
:1036B00068301B0C82F862301B0A82F863300123E9
:1036C00082F8691013710CA80D4B984710B90C982B
:1036D0000C4B98471AB070BD0420FBE70820F9E7AF
:1036E0000220F7E7CD260000B12E0000992500004A
:1036F0006D3000005D260000112A0000AD2500009D
:10370000A92B00003529000008B528B9034B9847BC
:10371000003018BF012008BD012008BDFD120000C7
:1037200008B528B9034B9847003018BF012008BDE1
:10373000012008BDA10D0000F8B50E4615461C4637
:1037400058B9074F0CB92046F8BD29463046013C10
:10375000B847E4B205F50075F4E70420F8BD00BFF2
:103760002D110000F8B50E4615461C4658B9074FF6
:103770000CB92046F8BD29463046013CB847E4B2B2
:1037800005F50075F4E70420F8BD00BFE511000061
:1037900010B51446C8B9042915D8DFE801F0030EA6
:1037A000061203000020C0B210BD094B984780B23A
:1037B0002080003018BF0120F5E7064B98472060B5
:1037C000F7E7034BFAE70120EDE7042010BD00BF47
:1037D000BD0D0000B10D000038B50A4C0A4D641B48
:1037E000A4100AD004F18043013B05EB8305013CA2
:1037F00055F804399847002CF9D1BDE8384000F05D
:10380000FFB900BF103C00000C3C0000024B13B19C
:103810000248FEF779B8704700000000D937000071
:10382000010200426F6F742D6572726F723A20440C
:1038300069646E27742067657420612072657370F7
:103840006F6E73652066726F6D20746865206469A1
:10385000736B0A00426F6F742D6572726F723A203B
:10386000436F756C646E27742072656164206373A6
:103870006420726573706F6E73652066726F6D2061
:103880006469736B0A00426F6F742D6572726F7298
:103890003A20534448432063617264207769746816
:1038A00020726567756C6172205344206465736390
:1038B000726970746F720A00426F6F742D65727254
:1038C0006F723A205344205631206F7220563220B6
:1038D00063617264207769746820534448432064AC
:1038E000657363726970746F720A00426F6F742D32
:1038F0006572726F723A20496E76616C696420431A
:10390000534420256C750A00426F6F742D657272E6
:103910006F723A20536574203531322D62797465A7
:1039200020626C6F636B2074696D6564206F7574C1
:103930000A00426F6F742D6572726F723A204E6F7B
:103940007420696E2069646C6520737461746520ED
:1039500061667465722073656E64696E6720434D9D
:10396000443820286E6F7420616E205344206361B8
:1039700072643F290A00426F6F743A2054696D6582
:103980006F75742077616974696E6720666F722045
:1039900076312E7820636172640A00426F6F743A48
:1039A0002054696D656F75742077616974696E67FD
:1039B00020666F722076322E7820636172640A006E
:1039C000426F6F743A204275734661756C740A00D9
:1039D000426F6F743A20486172644661756C740A74
:1039E00000426F6F743A204D656D4D616E61676581
:1039F0000A00426F6F743A204E4D490A00426F6FC1
:103A0000743A2055736167654661756C740A0042AB
:103A10006F6F743A20466C617368696E67206669DF
:103A2000726D776172652E2E2E0A00426F6F743AA6
:103A300020537563636573730A00426F6F743A2095
:103A40002573206E6F7420666F756E640A00426F76
:103A50006F743A202573204446553A25640A004283
:103A60006F6F743A206E6F207364636172640A0032
:103A7000426F6F743A206E6F2073646361726420CA
:103A80006F6E20646973706C617920626F6172641B
:103A90000A00426F6F743A205741544348444F47DD
:103AA00020726573657400426F6F743A20557365B8
:103AB0007220666C61736820656D707479002C20CB
:103AC000656E746572696E6720444655206D6F643B
:103AD000650A00426F6F743A204A756D70696E67AF
:103AE00020746F20307825780A00426F6F743A2076
:103AF00049535020627574746F6E207072657373D1
:103B00006564006669726D776172652E6375720017
:103B10006669726D776172652E62696E00312E3052
:103B20003520534B52003031323334353637383943
:103B30004142434445460030780001000200040041
:103B4000080080000001000200C0092020C00920F8
:103B500040C0092060C0092080C00920809A90419F
:103B60008E418F804545454949498E8F9092924FAD
:103B7000994F555559999A9B9C9D9E9F41494F55E8
:103B8000A5A5A6A7A8A9AAABAC21AEAFB0B1B2B308
:103B9000B4B5B6B7B8B9BABBBCBDBEBFC0C1C2C36D
:103BA000C4C5C6C7C8C9CACBCCCDCECFD0D1D2D35D
:103BB000D4D5D6D7D8D9DADBDCDDDEDFE0E1E2E34D
:103BC000E4E5E6E7E8E9EAEBECEDEEEFF0F1F2F33D
:103BD000F4F5F6F7F8F9FAFBFCFDFEFF222A2B2C90
:103BE0003A3B3C3D3E3F5B5D7C7F0000F8B500BF4B
:103BF000F8BC08BC9E4670470D38000095010000D7
:103C0000F8B500BFF8BC08BC9E4670476D010000C7
:103C100000000000403C0000000000109800000080
:043C2000580B00003D
:103C2400A8C4FF7F0100000034E5FF7FB0B0B0807E
:083C340058E5FF7F01000000CC
:103C400000000000103B0000033B00001D3B000093
:103C500000F4010002001201000200000040501DAB
:103C6000156040000102000109021B0001010080F3
:103C7000FA0904000000FE01020309210BF401000F
:103C8000020101040309041803420069006700747B
:103C9000007200650065007400650063006800182C
:103CA0000353004B005200200031002E0033002F40
:103CB0000031002E0034001A0353006D006F006FB6
:103CC000007400680069006500200044004600554B
:083CD00000000000000E2707B0
:04000003000000CD2C
:00000001FF
